{
  "_format": "hh-sol-artifact-1",
  "contractName": "Skelee",
  "sourceName": "contracts/Skelee.sol",
  "abi": [
    {
      "inputs": [
        {
          "internalType": "string",
          "name": "_initBaseURI",
          "type": "string"
        }
      ],
      "stateMutability": "nonpayable",
      "type": "constructor"
    },
    {
      "inputs": [],
      "name": "ApprovalCallerNotOwnerNorApproved",
      "type": "error"
    },
    {
      "inputs": [],
      "name": "ApprovalQueryForNonexistentToken",
      "type": "error"
    },
    {
      "inputs": [],
      "name": "BalanceQueryForZeroAddress",
      "type": "error"
    },
    {
      "inputs": [],
      "name": "MintERC2309QuantityExceedsLimit",
      "type": "error"
    },
    {
      "inputs": [],
      "name": "MintToZeroAddress",
      "type": "error"
    },
    {
      "inputs": [],
      "name": "MintZeroQuantity",
      "type": "error"
    },
    {
      "inputs": [],
      "name": "OwnerQueryForNonexistentToken",
      "type": "error"
    },
    {
      "inputs": [],
      "name": "OwnershipNotInitializedForExtraData",
      "type": "error"
    },
    {
      "inputs": [],
      "name": "TransferCallerNotOwnerNorApproved",
      "type": "error"
    },
    {
      "inputs": [],
      "name": "TransferFromIncorrectOwner",
      "type": "error"
    },
    {
      "inputs": [],
      "name": "TransferToNonERC721ReceiverImplementer",
      "type": "error"
    },
    {
      "inputs": [],
      "name": "TransferToZeroAddress",
      "type": "error"
    },
    {
      "inputs": [],
      "name": "URIQueryForNonexistentToken",
      "type": "error"
    },
    {
      "anonymous": false,
      "inputs": [
        {
          "indexed": true,
          "internalType": "address",
          "name": "owner",
          "type": "address"
        },
        {
          "indexed": true,
          "internalType": "address",
          "name": "approved",
          "type": "address"
        },
        {
          "indexed": true,
          "internalType": "uint256",
          "name": "tokenId",
          "type": "uint256"
        }
      ],
      "name": "Approval",
      "type": "event"
    },
    {
      "anonymous": false,
      "inputs": [
        {
          "indexed": true,
          "internalType": "address",
          "name": "owner",
          "type": "address"
        },
        {
          "indexed": true,
          "internalType": "address",
          "name": "operator",
          "type": "address"
        },
        {
          "indexed": false,
          "internalType": "bool",
          "name": "approved",
          "type": "bool"
        }
      ],
      "name": "ApprovalForAll",
      "type": "event"
    },
    {
      "anonymous": false,
      "inputs": [
        {
          "indexed": true,
          "internalType": "uint256",
          "name": "fromTokenId",
          "type": "uint256"
        },
        {
          "indexed": false,
          "internalType": "uint256",
          "name": "toTokenId",
          "type": "uint256"
        },
        {
          "indexed": true,
          "internalType": "address",
          "name": "from",
          "type": "address"
        },
        {
          "indexed": true,
          "internalType": "address",
          "name": "to",
          "type": "address"
        }
      ],
      "name": "ConsecutiveTransfer",
      "type": "event"
    },
    {
      "anonymous": false,
      "inputs": [
        {
          "indexed": true,
          "internalType": "address",
          "name": "previousOwner",
          "type": "address"
        },
        {
          "indexed": true,
          "internalType": "address",
          "name": "newOwner",
          "type": "address"
        }
      ],
      "name": "OwnershipTransferred",
      "type": "event"
    },
    {
      "anonymous": false,
      "inputs": [
        {
          "indexed": true,
          "internalType": "address",
          "name": "from",
          "type": "address"
        },
        {
          "indexed": true,
          "internalType": "address",
          "name": "to",
          "type": "address"
        },
        {
          "indexed": true,
          "internalType": "uint256",
          "name": "tokenId",
          "type": "uint256"
        }
      ],
      "name": "Transfer",
      "type": "event"
    },
    {
      "inputs": [],
      "name": "EarlyAccessCost",
      "outputs": [
        {
          "internalType": "uint256",
          "name": "",
          "type": "uint256"
        }
      ],
      "stateMutability": "view",
      "type": "function"
    },
    {
      "inputs": [
        {
          "internalType": "uint256",
          "name": "tokens",
          "type": "uint256"
        }
      ],
      "name": "EarlyAccessMint",
      "outputs": [],
      "stateMutability": "payable",
      "type": "function"
    },
    {
      "inputs": [],
      "name": "EarlyAccess_Live",
      "outputs": [
        {
          "internalType": "bool",
          "name": "",
          "type": "bool"
        }
      ],
      "stateMutability": "view",
      "type": "function"
    },
    {
      "inputs": [
        {
          "internalType": "uint256",
          "name": "tokens",
          "type": "uint256"
        }
      ],
      "name": "FreeMint",
      "outputs": [],
      "stateMutability": "nonpayable",
      "type": "function"
    },
    {
      "inputs": [],
      "name": "FreeMintSupply",
      "outputs": [
        {
          "internalType": "uint256",
          "name": "",
          "type": "uint256"
        }
      ],
      "stateMutability": "view",
      "type": "function"
    },
    {
      "inputs": [],
      "name": "FreeMint_Live",
      "outputs": [
        {
          "internalType": "bool",
          "name": "",
          "type": "bool"
        }
      ],
      "stateMutability": "view",
      "type": "function"
    },
    {
      "inputs": [],
      "name": "MaxperWallet",
      "outputs": [
        {
          "internalType": "uint256",
          "name": "",
          "type": "uint256"
        }
      ],
      "stateMutability": "view",
      "type": "function"
    },
    {
      "inputs": [],
      "name": "MaxperWalletFreeMint",
      "outputs": [
        {
          "internalType": "uint256",
          "name": "",
          "type": "uint256"
        }
      ],
      "stateMutability": "view",
      "type": "function"
    },
    {
      "inputs": [],
      "name": "MaxperWalletWL",
      "outputs": [
        {
          "internalType": "uint256",
          "name": "",
          "type": "uint256"
        }
      ],
      "stateMutability": "view",
      "type": "function"
    },
    {
      "inputs": [
        {
          "internalType": "uint256",
          "name": "tokens",
          "type": "uint256"
        },
        {
          "internalType": "bytes32[]",
          "name": "merkleProof",
          "type": "bytes32[]"
        }
      ],
      "name": "WlMint",
      "outputs": [],
      "stateMutability": "payable",
      "type": "function"
    },
    {
      "inputs": [
        {
          "internalType": "address",
          "name": "to",
          "type": "address"
        },
        {
          "internalType": "uint256",
          "name": "tokenId",
          "type": "uint256"
        }
      ],
      "name": "approve",
      "outputs": [],
      "stateMutability": "payable",
      "type": "function"
    },
    {
      "inputs": [
        {
          "internalType": "address",
          "name": "owner",
          "type": "address"
        }
      ],
      "name": "balanceOf",
      "outputs": [
        {
          "internalType": "uint256",
          "name": "",
          "type": "uint256"
        }
      ],
      "stateMutability": "view",
      "type": "function"
    },
    {
      "inputs": [],
      "name": "baseExtension",
      "outputs": [
        {
          "internalType": "string",
          "name": "",
          "type": "string"
        }
      ],
      "stateMutability": "view",
      "type": "function"
    },
    {
      "inputs": [],
      "name": "baseURI",
      "outputs": [
        {
          "internalType": "string",
          "name": "",
          "type": "string"
        }
      ],
      "stateMutability": "view",
      "type": "function"
    },
    {
      "inputs": [
        {
          "internalType": "uint256",
          "name": "tokenId",
          "type": "uint256"
        }
      ],
      "name": "getApproved",
      "outputs": [
        {
          "internalType": "address",
          "name": "",
          "type": "address"
        }
      ],
      "stateMutability": "view",
      "type": "function"
    },
    {
      "inputs": [
        {
          "internalType": "uint256",
          "name": "_mintAmount",
          "type": "uint256"
        },
        {
          "internalType": "address",
          "name": "destination",
          "type": "address"
        }
      ],
      "name": "gift",
      "outputs": [],
      "stateMutability": "nonpayable",
      "type": "function"
    },
    {
      "inputs": [
        {
          "internalType": "address",
          "name": "owner",
          "type": "address"
        },
        {
          "internalType": "address",
          "name": "operator",
          "type": "address"
        }
      ],
      "name": "isApprovedForAll",
      "outputs": [
        {
          "internalType": "bool",
          "name": "",
          "type": "bool"
        }
      ],
      "stateMutability": "view",
      "type": "function"
    },
    {
      "inputs": [],
      "name": "maxSupply",
      "outputs": [
        {
          "internalType": "uint256",
          "name": "",
          "type": "uint256"
        }
      ],
      "stateMutability": "view",
      "type": "function"
    },
    {
      "inputs": [],
      "name": "merkleRoot",
      "outputs": [
        {
          "internalType": "bytes32",
          "name": "",
          "type": "bytes32"
        }
      ],
      "stateMutability": "view",
      "type": "function"
    },
    {
      "inputs": [],
      "name": "name",
      "outputs": [
        {
          "internalType": "string",
          "name": "",
          "type": "string"
        }
      ],
      "stateMutability": "view",
      "type": "function"
    },
    {
      "inputs": [],
      "name": "notRevealedUri",
      "outputs": [
        {
          "internalType": "string",
          "name": "",
          "type": "string"
        }
      ],
      "stateMutability": "view",
      "type": "function"
    },
    {
      "inputs": [
        {
          "internalType": "address",
          "name": "owner",
          "type": "address"
        }
      ],
      "name": "numberMinted",
      "outputs": [
        {
          "internalType": "uint256",
          "name": "",
          "type": "uint256"
        }
      ],
      "stateMutability": "view",
      "type": "function"
    },
    {
      "inputs": [],
      "name": "owner",
      "outputs": [
        {
          "internalType": "address",
          "name": "",
          "type": "address"
        }
      ],
      "stateMutability": "view",
      "type": "function"
    },
    {
      "inputs": [
        {
          "internalType": "uint256",
          "name": "tokenId",
          "type": "uint256"
        }
      ],
      "name": "ownerOf",
      "outputs": [
        {
          "internalType": "address",
          "name": "",
          "type": "address"
        }
      ],
      "stateMutability": "view",
      "type": "function"
    },
    {
      "inputs": [
        {
          "internalType": "bool",
          "name": "_state",
          "type": "bool"
        }
      ],
      "name": "pause",
      "outputs": [],
      "stateMutability": "nonpayable",
      "type": "function"
    },
    {
      "inputs": [],
      "name": "paused",
      "outputs": [
        {
          "internalType": "bool",
          "name": "",
          "type": "bool"
        }
      ],
      "stateMutability": "view",
      "type": "function"
    },
    {
      "inputs": [],
      "name": "renounceOwnership",
      "outputs": [],
      "stateMutability": "nonpayable",
      "type": "function"
    },
    {
      "inputs": [
        {
          "internalType": "bool",
          "name": "_state",
          "type": "bool"
        }
      ],
      "name": "reveal",
      "outputs": [],
      "stateMutability": "nonpayable",
      "type": "function"
    },
    {
      "inputs": [],
      "name": "revealed",
      "outputs": [
        {
          "internalType": "bool",
          "name": "",
          "type": "bool"
        }
      ],
      "stateMutability": "view",
      "type": "function"
    },
    {
      "inputs": [
        {
          "internalType": "address",
          "name": "from",
          "type": "address"
        },
        {
          "internalType": "address",
          "name": "to",
          "type": "address"
        },
        {
          "internalType": "uint256",
          "name": "tokenId",
          "type": "uint256"
        }
      ],
      "name": "safeTransferFrom",
      "outputs": [],
      "stateMutability": "payable",
      "type": "function"
    },
    {
      "inputs": [
        {
          "internalType": "address",
          "name": "from",
          "type": "address"
        },
        {
          "internalType": "address",
          "name": "to",
          "type": "address"
        },
        {
          "internalType": "uint256",
          "name": "tokenId",
          "type": "uint256"
        },
        {
          "internalType": "bytes",
          "name": "_data",
          "type": "bytes"
        }
      ],
      "name": "safeTransferFrom",
      "outputs": [],
      "stateMutability": "payable",
      "type": "function"
    },
    {
      "inputs": [
        {
          "internalType": "address",
          "name": "operator",
          "type": "address"
        },
        {
          "internalType": "bool",
          "name": "approved",
          "type": "bool"
        }
      ],
      "name": "setApprovalForAll",
      "outputs": [],
      "stateMutability": "nonpayable",
      "type": "function"
    },
    {
      "inputs": [
        {
          "internalType": "string",
          "name": "_newBaseExtension",
          "type": "string"
        }
      ],
      "name": "setBaseExtension",
      "outputs": [],
      "stateMutability": "nonpayable",
      "type": "function"
    },
    {
      "inputs": [
        {
          "internalType": "string",
          "name": "_newBaseURI",
          "type": "string"
        }
      ],
      "name": "setBaseURI",
      "outputs": [],
      "stateMutability": "nonpayable",
      "type": "function"
    },
    {
      "inputs": [
        {
          "internalType": "uint256",
          "name": "_newCost",
          "type": "uint256"
        }
      ],
      "name": "setEarlyAccessCost",
      "outputs": [],
      "stateMutability": "nonpayable",
      "type": "function"
    },
    {
      "inputs": [
        {
          "internalType": "uint256",
          "name": "_newsupply",
          "type": "uint256"
        }
      ],
      "name": "setFreeMintSupply",
      "outputs": [],
      "stateMutability": "nonpayable",
      "type": "function"
    },
    {
      "inputs": [
        {
          "internalType": "uint256",
          "name": "_limit",
          "type": "uint256"
        }
      ],
      "name": "setMaxPerWallet",
      "outputs": [],
      "stateMutability": "nonpayable",
      "type": "function"
    },
    {
      "inputs": [
        {
          "internalType": "uint256",
          "name": "_limit",
          "type": "uint256"
        }
      ],
      "name": "setMaxperWalletFreeMint",
      "outputs": [],
      "stateMutability": "nonpayable",
      "type": "function"
    },
    {
      "inputs": [
        {
          "internalType": "uint256",
          "name": "_limit",
          "type": "uint256"
        }
      ],
      "name": "setMaxperWalletWL",
      "outputs": [],
      "stateMutability": "nonpayable",
      "type": "function"
    },
    {
      "inputs": [
        {
          "internalType": "uint256",
          "name": "_newsupply",
          "type": "uint256"
        }
      ],
      "name": "setMaxsupply",
      "outputs": [],
      "stateMutability": "nonpayable",
      "type": "function"
    },
    {
      "inputs": [
        {
          "internalType": "bytes32",
          "name": "_merkleRoot",
          "type": "bytes32"
        }
      ],
      "name": "setMerkleRoot",
      "outputs": [],
      "stateMutability": "nonpayable",
      "type": "function"
    },
    {
      "inputs": [
        {
          "internalType": "string",
          "name": "_notRevealedURI",
          "type": "string"
        }
      ],
      "name": "setNotRevealedURI",
      "outputs": [],
      "stateMutability": "nonpayable",
      "type": "function"
    },
    {
      "inputs": [
        {
          "internalType": "uint256",
          "name": "_newCost",
          "type": "uint256"
        }
      ],
      "name": "setwlCost",
      "outputs": [],
      "stateMutability": "nonpayable",
      "type": "function"
    },
    {
      "inputs": [
        {
          "internalType": "bytes4",
          "name": "interfaceId",
          "type": "bytes4"
        }
      ],
      "name": "supportsInterface",
      "outputs": [
        {
          "internalType": "bool",
          "name": "",
          "type": "bool"
        }
      ],
      "stateMutability": "view",
      "type": "function"
    },
    {
      "inputs": [],
      "name": "symbol",
      "outputs": [
        {
          "internalType": "string",
          "name": "",
          "type": "string"
        }
      ],
      "stateMutability": "view",
      "type": "function"
    },
    {
      "inputs": [
        {
          "internalType": "bool",
          "name": "_state",
          "type": "bool"
        }
      ],
      "name": "toggleWlMint",
      "outputs": [],
      "stateMutability": "nonpayable",
      "type": "function"
    },
    {
      "inputs": [
        {
          "internalType": "bool",
          "name": "_state",
          "type": "bool"
        }
      ],
      "name": "toggle_EarlyAccess_Live",
      "outputs": [],
      "stateMutability": "nonpayable",
      "type": "function"
    },
    {
      "inputs": [
        {
          "internalType": "bool",
          "name": "_state",
          "type": "bool"
        }
      ],
      "name": "toggle_FreeMint_Live",
      "outputs": [],
      "stateMutability": "nonpayable",
      "type": "function"
    },
    {
      "inputs": [
        {
          "internalType": "uint256",
          "name": "tokenId",
          "type": "uint256"
        }
      ],
      "name": "tokenURI",
      "outputs": [
        {
          "internalType": "string",
          "name": "",
          "type": "string"
        }
      ],
      "stateMutability": "view",
      "type": "function"
    },
    {
      "inputs": [],
      "name": "totalSupply",
      "outputs": [
        {
          "internalType": "uint256",
          "name": "",
          "type": "uint256"
        }
      ],
      "stateMutability": "view",
      "type": "function"
    },
    {
      "inputs": [
        {
          "internalType": "address",
          "name": "from",
          "type": "address"
        },
        {
          "internalType": "address",
          "name": "to",
          "type": "address"
        },
        {
          "internalType": "uint256",
          "name": "tokenId",
          "type": "uint256"
        }
      ],
      "name": "transferFrom",
      "outputs": [],
      "stateMutability": "payable",
      "type": "function"
    },
    {
      "inputs": [
        {
          "internalType": "address",
          "name": "newOwner",
          "type": "address"
        }
      ],
      "name": "transferOwnership",
      "outputs": [],
      "stateMutability": "nonpayable",
      "type": "function"
    },
    {
      "inputs": [],
      "name": "withdraw",
      "outputs": [],
      "stateMutability": "payable",
      "type": "function"
    },
    {
      "inputs": [],
      "name": "wlCost",
      "outputs": [
        {
          "internalType": "uint256",
          "name": "",
          "type": "uint256"
        }
      ],
      "stateMutability": "view",
      "type": "function"
    },
    {
      "inputs": [],
      "name": "wlMint",
      "outputs": [
        {
          "internalType": "bool",
          "name": "",
          "type": "bool"
        }
      ],
      "stateMutability": "view",
      "type": "function"
    }
  ],
  "bytecode": "0x60c06040526005608090815264173539b7b760d91b60a052600b9062000026908262000287565b506701bc16d674ec8000600d556000600e819055611e61600f55600a6010556005601155600160128190556013556014805464ffffffffff19166401010000001790556015553480156200007957600080fd5b5060405162002c0938038062002c098339810160408190526200009c9162000353565b604080518082018252600680825265536b656c656560d01b6020808401829052845180860190955291845290830152906002620000da838262000287565b506003620000e9828262000287565b5050600160005550620000fc3362000113565b60016009556200010c8162000165565b5062000428565b600880546001600160a01b038381166001600160a01b0319831681179093556040519116919082907f8be0079c531659141344cd1fd0a4f28419497f9722a3daafe3b4186f6b6457e090600090a35050565b6200016f62000181565b600a6200017d828262000287565b5050565b6008546001600160a01b03163314620001e05760405162461bcd60e51b815260206004820181905260248201527f4f776e61626c653a2063616c6c6572206973206e6f7420746865206f776e6572604482015260640160405180910390fd5b565b634e487b7160e01b600052604160045260246000fd5b600181811c908216806200020d57607f821691505b6020821081036200022e57634e487b7160e01b600052602260045260246000fd5b50919050565b601f8211156200028257600081815260208120601f850160051c810160208610156200025d5750805b601f850160051c820191505b818110156200027e5782815560010162000269565b5050505b505050565b81516001600160401b03811115620002a357620002a3620001e2565b620002bb81620002b48454620001f8565b8462000234565b602080601f831160018114620002f35760008415620002da5750858301515b600019600386901b1c1916600185901b1785556200027e565b600085815260208120601f198616915b82811015620003245788860151825594840194600190910190840162000303565b5085821015620003435787850151600019600388901b60f8161c191681555b5050505050600190811b01905550565b600060208083850312156200036757600080fd5b82516001600160401b03808211156200037f57600080fd5b818501915085601f8301126200039457600080fd5b815181811115620003a957620003a9620001e2565b604051601f8201601f19908116603f01168101908382118183101715620003d457620003d4620001e2565b816040528281528886848701011115620003ed57600080fd5b600093505b82841015620004115784840186015181850187015292850192620003f2565b600086848301015280965050505050505092915050565b6127d180620004386000396000f3fe6080604052600436106103505760003560e01c80637cb64759116101c6578063bdfaa084116100f7578063dc33e68111610095578063e985e9c51161006f578063e985e9c5146108f6578063f053980214610916578063f2c4ce1e14610936578063f2fde38b1461095657600080fd5b8063dc33e68114610895578063e268e4d3146108b5578063e8e0704f146108d557600080fd5b8063c87b56dd116100d1578063c87b56dd14610829578063d5abeb0114610849578063d70a28d11461085f578063da3ef23f1461087557600080fd5b8063bdfaa084146107d4578063c4c39ed5146107f4578063c66828621461081457600080fd5b8063a22cb46511610164578063aeeae3a61161013e578063aeeae3a614610775578063b483f4881461078b578063b88d4fde146107ab578063bd7a1998146107be57600080fd5b8063a22cb46514610715578063a4985c8714610735578063ac8130881461075557600080fd5b80638da5cb5b116101a05780638da5cb5b146106ac578063940cd05b146106ca57806395d89b41146106ea578063986b596d146106ff57600080fd5b80637cb647591461064c5780637f9fa4111461066c57806383a076be1461068c57600080fd5b80633ccfd60b116102a05780636352211e1161023e5780636c0360eb116102185780636c0360eb146105e057806370a08231146105f5578063715018a61461061557806379c2a3bc1461062a57600080fd5b80636352211e146105805780636982321d146105a05780636a972e1a146105c057600080fd5b806355f804b31161027a57806355f804b3146105135780635abeb2a3146105335780635c975abb1461055357806361efde221461056d57600080fd5b80633ccfd60b146104d957806342842e0e146104e157806351830227146104f457600080fd5b8063105cff331161030d57806318d11131116102e757806318d111311461048757806323b872dd1461049d5780632eb4a7ab146104b0578063375cff43146104c657600080fd5b8063105cff331461042e578063149835a01461045257806318160ddd1461047257600080fd5b806301ffc9a71461035557806302329a291461038a57806306fdde03146103ac578063081812fc146103ce578063081c8c4414610406578063095ea7b31461041b575b600080fd5b34801561036157600080fd5b506103756103703660046120af565b610976565b60405190151581526020015b60405180910390f35b34801561039657600080fd5b506103aa6103a53660046120e1565b6109c8565b005b3480156103b857600080fd5b506103c16109e3565b604051610381919061214c565b3480156103da57600080fd5b506103ee6103e936600461215f565b610a75565b6040516001600160a01b039091168152602001610381565b34801561041257600080fd5b506103c1610ab9565b6103aa61042936600461218f565b610b47565b34801561043a57600080fd5b5061044460135481565b604051908152602001610381565b34801561045e57600080fd5b506103aa61046d36600461215f565b610be7565b34801561047e57600080fd5b50610444610bf4565b34801561049357600080fd5b5061044460105481565b6103aa6104ab3660046121b9565b610c02565b3480156104bc57600080fd5b5061044460155481565b6103aa6104d436600461215f565b610d9b565b6103aa611009565b6103aa6104ef3660046121b9565b61107b565b34801561050057600080fd5b5060145461037590610100900460ff1681565b34801561051f57600080fd5b506103aa61052e366004612281565b61109b565b34801561053f57600080fd5b506103aa61054e36600461215f565b6110b3565b34801561055f57600080fd5b506014546103759060ff1681565b6103aa61057b3660046122ca565b6110c0565b34801561058c57600080fd5b506103ee61059b36600461215f565b611376565b3480156105ac57600080fd5b506103aa6105bb36600461215f565b611381565b3480156105cc57600080fd5b506103aa6105db36600461215f565b61138e565b3480156105ec57600080fd5b506103c161139b565b34801561060157600080fd5b50610444610610366004612349565b6113a8565b34801561062157600080fd5b506103aa6113f7565b34801561063657600080fd5b5060145461037590640100000000900460ff1681565b34801561065857600080fd5b506103aa61066736600461215f565b611409565b34801561067857600080fd5b506014546103759062010000900460ff1681565b34801561069857600080fd5b506103aa6106a7366004612364565b611416565b3480156106b857600080fd5b506008546001600160a01b03166103ee565b3480156106d657600080fd5b506103aa6106e53660046120e1565b6114bc565b3480156106f657600080fd5b506103c16114de565b34801561070b57600080fd5b50610444600d5481565b34801561072157600080fd5b506103aa610730366004612390565b6114ed565b34801561074157600080fd5b506103aa6107503660046120e1565b611559565b34801561076157600080fd5b506103aa6107703660046120e1565b611581565b34801561078157600080fd5b5061044460125481565b34801561079757600080fd5b506103aa6107a63660046120e1565b6115a5565b6103aa6107b93660046123ba565b6115cb565b3480156107ca57600080fd5b5061044460115481565b3480156107e057600080fd5b506103aa6107ef36600461215f565b611615565b34801561080057600080fd5b506103aa61080f36600461215f565b6117cd565b34801561082057600080fd5b506103c16117da565b34801561083557600080fd5b506103c161084436600461215f565b6117e7565b34801561085557600080fd5b50610444600f5481565b34801561086b57600080fd5b50610444600e5481565b34801561088157600080fd5b506103aa610890366004612281565b61195c565b3480156108a157600080fd5b506104446108b0366004612349565b611970565b3480156108c157600080fd5b506103aa6108d036600461215f565b61197b565b3480156108e157600080fd5b50601454610375906301000000900460ff1681565b34801561090257600080fd5b50610375610911366004612436565b611988565b34801561092257600080fd5b506103aa61093136600461215f565b6119b6565b34801561094257600080fd5b506103aa610951366004612281565b6119c3565b34801561096257600080fd5b506103aa610971366004612349565b6119d7565b60006301ffc9a760e01b6001600160e01b0319831614806109a757506380ac58cd60e01b6001600160e01b03198316145b806109c25750635b5e139f60e01b6001600160e01b03198316145b92915050565b6109d0611a4d565b6014805460ff1916911515919091179055565b6060600280546109f290612460565b80601f0160208091040260200160405190810160405280929190818152602001828054610a1e90612460565b8015610a6b5780601f10610a4057610100808354040283529160200191610a6b565b820191906000526020600020905b815481529060010190602001808311610a4e57829003601f168201915b5050505050905090565b6000610a8082611aa7565b610a9d576040516333d1c03960e21b815260040160405180910390fd5b506000908152600660205260409020546001600160a01b031690565b600c8054610ac690612460565b80601f0160208091040260200160405190810160405280929190818152602001828054610af290612460565b8015610b3f5780601f10610b1457610100808354040283529160200191610b3f565b820191906000526020600020905b815481529060010190602001808311610b2257829003601f168201915b505050505081565b6000610b5282611376565b9050336001600160a01b03821614610b8b57610b6e8133611988565b610b8b576040516367d9dca160e11b815260040160405180910390fd5b60008281526006602052604080822080546001600160a01b0319166001600160a01b0387811691821790925591518593918516917f8c5be1e5ebec7d5bd14f71427d1e84f3dd0314c0f7b2291e5b200ac8c7c3b92591a4505050565b610bef611a4d565b600f55565b600154600054036000190190565b6000610c0d82611adc565b9050836001600160a01b0316816001600160a01b031614610c405760405162a1148160e81b815260040160405180910390fd5b60008281526006602052604090208054338082146001600160a01b03881690911417610c8d57610c708633611988565b610c8d57604051632ce44b5f60e11b815260040160405180910390fd5b6001600160a01b038516610cb457604051633a954ecd60e21b815260040160405180910390fd5b8015610cbf57600082555b6001600160a01b038681166000908152600560205260408082208054600019019055918716808252919020805460010190554260a01b17600160e11b17600085815260046020526040812091909155600160e11b84169003610d5157600184016000818152600460205260408120549003610d4f576000548114610d4f5760008181526004602052604090208490555b505b83856001600160a01b0316876001600160a01b03167fddf252ad1be2c89b69c2b068fc378daa952ba7f163c4a11628f55a4df523b3ef60405160405180910390a45b505050505050565b610da3611b4b565b60145460ff1615610dcf5760405162461bcd60e51b8152600401610dc69061249a565b60405180910390fd5b6014546301000000900460ff16610e225760405162461bcd60e51b815260206004820152601760248201527614d85b194812185cdb89dd081cdd185c9d1959081e595d604a1b6044820152606401610dc6565b6000610e2c610bf4565b9050601054811015610e985760405162461bcd60e51b815260206004820152602f60248201527f54686973206d696e742070686173652077696c6c20737461727420616674657260448201526e20467265654d696e7420706861736560881b6064820152608401610dc6565b60008211610eb85760405162461bcd60e51b8152600401610dc6906124d1565b601154821115610f0a5760405162461bcd60e51b815260206004820152601f60248201527f6d6178206d696e7420616d6f756e7420706572207478206578636565646564006044820152606401610dc6565b600f54610f17838361251e565b1115610f355760405162461bcd60e51b8152600401610dc690612531565b60115482610f4733611ba4565b611ba4565b610f51919061251e565b1115610f9f5760405162461bcd60e51b815260206004820152601d60248201527f204d6178204e465473205065722057616c6c65742065786365656465640000006044820152606401610dc6565b81600d54610fad9190612555565b341015610ff15760405162461bcd60e51b8152602060048201526012602482015271696e73756666696369656e742066756e647360701b6044820152606401610dc6565b610ffb3383611bcd565b506110066001600955565b50565b611011611a4d565b611019611b4b565b604051600090339047908381818185875af1925050503d806000811461105b576040519150601f19603f3d011682016040523d82523d6000602084013e611060565b606091505b505090508061106e57600080fd5b506110796001600955565b565b611096838383604051806020016040528060008152506115cb565b505050565b6110a3611a4d565b600a6110af82826125b2565b5050565b6110bb611a4d565b600d55565b6110c8611b4b565b60145460ff16156110eb5760405162461bcd60e51b8152600401610dc69061249a565b60145462010000900460ff166111435760405162461bcd60e51b815260206004820152601a60248201527f776c206d696e74204861736e27742073746172746564207965740000000000006044820152606401610dc6565b6111b8828280806020026020016040519081016040528093929190818152602001838360200280828437600092019190915250506015546040516bffffffffffffffffffffffff193360601b166020820152909250603401905060405160208183030381529060405280519060200120611be7565b6112045760405162461bcd60e51b815260206004820152601d60248201527f20596f7520617265206e6f7420696e207468652077686974656c6973740000006044820152606401610dc6565b600061120e610bf4565b90506012548461121e610f423390565b611228919061251e565b11156112765760405162461bcd60e51b815260206004820152601b60248201527f4d6178204e4654205065722057616c6c657420657863656564656400000000006044820152606401610dc6565b600084116112965760405162461bcd60e51b8152600401610dc6906124d1565b600f546112a3858361251e565b11156112c15760405162461bcd60e51b8152600401610dc690612531565b6012548411156113135760405162461bcd60e51b815260206004820152601860248201527f6d6178206d696e742070657220547820657863656564656400000000000000006044820152606401610dc6565b83600e546113219190612555565b3410156113615760405162461bcd60e51b815260206004820152600e60248201526d0dcdee840cadcdeeaced040cae8d60931b6044820152606401610dc6565b61136b3385611bcd565b506110966001600955565b60006109c282611adc565b611389611a4d565b601355565b611396611a4d565b600e55565b600a8054610ac690612460565b60006001600160a01b0382166113d1576040516323d3ad8160e21b815260040160405180910390fd5b506001600160a01b031660009081526005602052604090205467ffffffffffffffff1690565b6113ff611a4d565b6110796000611bfd565b611411611a4d565b601555565b61141e611a4d565b611426611b4b565b600082116114465760405162461bcd60e51b8152600401610dc6906124d1565b6000611450610bf4565b600f54909150611460848361251e565b11156114a75760405162461bcd60e51b81526020600482015260166024820152751b585e08139195081b1a5b5a5d08195e18d95959195960521b6044820152606401610dc6565b6114b18284611bcd565b506110af6001600955565b6114c4611a4d565b601480549115156101000261ff0019909216919091179055565b6060600380546109f290612460565b3360008181526007602090815260408083206001600160a01b03871680855290835292819020805460ff191686151590811790915590519081529192917f17307eab39ab6107e8899845ad3d59bd9653f200f220920489ca2b5937696c31910160405180910390a35050565b611561611a4d565b601480549115156401000000000264ff0000000019909216919091179055565b611589611a4d565b60148054911515620100000262ff000019909216919091179055565b6115ad611a4d565b6014805491151563010000000263ff00000019909216919091179055565b6115d6848484610c02565b6001600160a01b0383163b1561160f576115f284848484611c4f565b61160f576040516368d2bf6b60e11b815260040160405180910390fd5b50505050565b61161d611b4b565b60145460ff16156116405760405162461bcd60e51b8152600401610dc69061249a565b601454640100000000900460ff166116945760405162461bcd60e51b815260206004820152601760248201527614d85b194812185cdb89dd081cdd185c9d1959081e595d604a1b6044820152606401610dc6565b600061169e610bf4565b9050600082116116c05760405162461bcd60e51b8152600401610dc6906124d1565b6011548211156117125760405162461bcd60e51b815260206004820152601f60248201527f6d6178206d696e7420616d6f756e7420706572207478206578636565646564006044820152606401610dc6565b600f5461171f838361251e565b111561173d5760405162461bcd60e51b8152600401610dc690612531565b60105461174a838361251e565b11156117685760405162461bcd60e51b8152600401610dc690612531565b6013548261177533611ba4565b61177f919061251e565b1115610ff15760405162461bcd60e51b815260206004820152601d60248201527f204d6178204e465473205065722057616c6c65742065786365656465640000006044820152606401610dc6565b6117d5611a4d565b601055565b600b8054610ac690612460565b60606117f282611aa7565b6118575760405162461bcd60e51b815260206004820152603060248201527f455243373231414d657461646174613a2055524920717565727920666f72206e60448201526f37b732bc34b9ba32b73a103a37b5b2b760811b6064820152608401610dc6565b601454610100900460ff1615156000036118fd57600c805461187890612460565b80601f01602080910402602001604051908101604052809291908181526020018280546118a490612460565b80156118f15780601f106118c6576101008083540402835291602001916118f1565b820191906000526020600020905b8154815290600101906020018083116118d457829003601f168201915b50505050509050919050565b6000611907611d3b565b905060008151116119275760405180602001604052806000815250611955565b8061193184611d4a565b600b60405160200161194593929190612672565b6040516020818303038152906040525b9392505050565b611964611a4d565b600b6110af82826125b2565b60006109c282611ba4565b611983611a4d565b601155565b6001600160a01b03918216600090815260076020908152604080832093909416825291909152205460ff1690565b6119be611a4d565b601255565b6119cb611a4d565b600c6110af82826125b2565b6119df611a4d565b6001600160a01b038116611a445760405162461bcd60e51b815260206004820152602660248201527f4f776e61626c653a206e6577206f776e657220697320746865207a65726f206160448201526564647265737360d01b6064820152608401610dc6565b61100681611bfd565b6008546001600160a01b031633146110795760405162461bcd60e51b815260206004820181905260248201527f4f776e61626c653a2063616c6c6572206973206e6f7420746865206f776e65726044820152606401610dc6565b600081600111158015611abb575060005482105b80156109c2575050600090815260046020526040902054600160e01b161590565b60008180600111611b3257600054811015611b325760008181526004602052604081205490600160e01b82169003611b30575b80600003611955575060001901600081815260046020526040902054611b0f565b505b604051636f96cda160e11b815260040160405180910390fd5b600260095403611b9d5760405162461bcd60e51b815260206004820152601f60248201527f5265656e7472616e637947756172643a207265656e7472616e742063616c6c006044820152606401610dc6565b6002600955565b6001600160a01b03166000908152600560205260409081902054901c67ffffffffffffffff1690565b6110af828260405180602001604052806000815250611ddd565b600082611bf48584611e4a565b14949350505050565b600880546001600160a01b038381166001600160a01b0319831681179093556040519116919082907f8be0079c531659141344cd1fd0a4f28419497f9722a3daafe3b4186f6b6457e090600090a35050565b604051630a85bd0160e11b81526000906001600160a01b0385169063150b7a0290611c84903390899088908890600401612712565b6020604051808303816000875af1925050508015611cbf575060408051601f3d908101601f19168201909252611cbc9181019061274f565b60015b611d1d573d808015611ced576040519150601f19603f3d011682016040523d82523d6000602084013e611cf2565b606091505b508051600003611d15576040516368d2bf6b60e11b815260040160405180910390fd5b805181602001fd5b6001600160e01b031916630a85bd0160e11b1490505b949350505050565b6060600a80546109f290612460565b60606000611d5783611e97565b600101905060008167ffffffffffffffff811115611d7757611d776121f5565b6040519080825280601f01601f191660200182016040528015611da1576020820181803683370190505b5090508181016020015b600019016f181899199a1a9b1b9c1cb0b131b232b360811b600a86061a8153600a8504945084611dab57509392505050565b611de78383611f6f565b6001600160a01b0383163b15611096576000548281035b611e116000868380600101945086611c4f565b611e2e576040516368d2bf6b60e11b815260040160405180910390fd5b818110611dfe578160005414611e4357600080fd5b5050505050565b600081815b8451811015611e8f57611e7b82868381518110611e6e57611e6e61276c565b602002602001015161206d565b915080611e8781612782565b915050611e4f565b509392505050565b60008072184f03e93ff9f4daa797ed6e38ed64bf6a1f0160401b8310611ed65772184f03e93ff9f4daa797ed6e38ed64bf6a1f0160401b830492506040015b6d04ee2d6d415b85acef81000000008310611f02576d04ee2d6d415b85acef8100000000830492506020015b662386f26fc100008310611f2057662386f26fc10000830492506010015b6305f5e1008310611f38576305f5e100830492506008015b6127108310611f4c57612710830492506004015b60648310611f5e576064830492506002015b600a83106109c25760010192915050565b6000805490829003611f945760405163b562e8dd60e01b815260040160405180910390fd5b6001600160a01b03831660008181526005602090815260408083208054680100000000000000018802019055848352600490915281206001851460e11b4260a01b178317905582840190839083907fddf252ad1be2c89b69c2b068fc378daa952ba7f163c4a11628f55a4df523b3ef8180a4600183015b81811461204357808360007fddf252ad1be2c89b69c2b068fc378daa952ba7f163c4a11628f55a4df523b3ef600080a460010161200b565b508160000361206457604051622e076360e81b815260040160405180910390fd5b60005550505050565b6000818310612089576000828152602084905260409020611955565b5060009182526020526040902090565b6001600160e01b03198116811461100657600080fd5b6000602082840312156120c157600080fd5b813561195581612099565b803580151581146120dc57600080fd5b919050565b6000602082840312156120f357600080fd5b611955826120cc565b60005b838110156121175781810151838201526020016120ff565b50506000910152565b600081518084526121388160208601602086016120fc565b601f01601f19169290920160200192915050565b6020815260006119556020830184612120565b60006020828403121561217157600080fd5b5035919050565b80356001600160a01b03811681146120dc57600080fd5b600080604083850312156121a257600080fd5b6121ab83612178565b946020939093013593505050565b6000806000606084860312156121ce57600080fd5b6121d784612178565b92506121e560208501612178565b9150604084013590509250925092565b634e487b7160e01b600052604160045260246000fd5b600067ffffffffffffffff80841115612226576122266121f5565b604051601f8501601f19908116603f0116810190828211818310171561224e5761224e6121f5565b8160405280935085815286868601111561226757600080fd5b858560208301376000602087830101525050509392505050565b60006020828403121561229357600080fd5b813567ffffffffffffffff8111156122aa57600080fd5b8201601f810184136122bb57600080fd5b611d338482356020840161220b565b6000806000604084860312156122df57600080fd5b83359250602084013567ffffffffffffffff808211156122fe57600080fd5b818601915086601f83011261231257600080fd5b81358181111561232157600080fd5b8760208260051b850101111561233657600080fd5b6020830194508093505050509250925092565b60006020828403121561235b57600080fd5b61195582612178565b6000806040838503121561237757600080fd5b8235915061238760208401612178565b90509250929050565b600080604083850312156123a357600080fd5b6123ac83612178565b9150612387602084016120cc565b600080600080608085870312156123d057600080fd5b6123d985612178565b93506123e760208601612178565b925060408501359150606085013567ffffffffffffffff81111561240a57600080fd5b8501601f8101871361241b57600080fd5b61242a8782356020840161220b565b91505092959194509250565b6000806040838503121561244957600080fd5b61245283612178565b915061238760208401612178565b600181811c9082168061247457607f821691505b60208210810361249457634e487b7160e01b600052602260045260246000fd5b50919050565b60208082526017908201527f6f6f707320636f6e747261637420697320706175736564000000000000000000604082015260600190565b6020808252601b908201527f6e65656420746f206d696e74206174206c656173742031204e46540000000000604082015260600190565b634e487b7160e01b600052601160045260246000fd5b808201808211156109c2576109c2612508565b6020808252600a908201526915d94814dbdb191bdd5d60b21b604082015260600190565b80820281158282048414176109c2576109c2612508565b601f82111561109657600081815260208120601f850160051c810160208610156125935750805b601f850160051c820191505b81811015610d935782815560010161259f565b815167ffffffffffffffff8111156125cc576125cc6121f5565b6125e0816125da8454612460565b8461256c565b602080601f83116001811461261557600084156125fd5750858301515b600019600386901b1c1916600185901b178555610d93565b600085815260208120601f198616915b8281101561264457888601518255948401946001909101908401612625565b50858210156126625787850151600019600388901b60f8161c191681555b5050505050600190811b01905550565b6000845160206126858285838a016120fc565b8551918401916126988184848a016120fc565b85549201916000906126a981612460565b600182811680156126c157600181146126d657612702565b60ff1984168752821515830287019450612702565b896000528560002060005b848110156126fa578154898201529083019087016126e1565b505082870194505b50929a9950505050505050505050565b6001600160a01b038581168252841660208201526040810183905260806060820181905260009061274590830184612120565b9695505050505050565b60006020828403121561276157600080fd5b815161195581612099565b634e487b7160e01b600052603260045260246000fd5b60006001820161279457612794612508565b506001019056fea26469706673582212208f10c9400a4ea8bee68b5231d65d44fbcbc42bb6598caa5e67886089b19ab5e164736f6c63430008110033",
  "linkReferences": {},
  "deployedLinkReferences": {}
}