{
  "_format": "hh-sol-artifact-1",
  "contractName": "Skelee",
  "sourceName": "contracts/Skelee.sol",
  "abi": [
    {
      "inputs": [
        {
          "internalType": "string",
          "name": "_initBaseURI",
          "type": "string"
        }
      ],
      "stateMutability": "nonpayable",
      "type": "constructor"
    },
    {
      "inputs": [],
      "name": "ApprovalCallerNotOwnerNorApproved",
      "type": "error"
    },
    {
      "inputs": [],
      "name": "ApprovalQueryForNonexistentToken",
      "type": "error"
    },
    {
      "inputs": [],
      "name": "BalanceQueryForZeroAddress",
      "type": "error"
    },
    {
      "inputs": [],
      "name": "MintERC2309QuantityExceedsLimit",
      "type": "error"
    },
    {
      "inputs": [],
      "name": "MintToZeroAddress",
      "type": "error"
    },
    {
      "inputs": [],
      "name": "MintZeroQuantity",
      "type": "error"
    },
    {
      "inputs": [],
      "name": "OwnerQueryForNonexistentToken",
      "type": "error"
    },
    {
      "inputs": [],
      "name": "OwnershipNotInitializedForExtraData",
      "type": "error"
    },
    {
      "inputs": [],
      "name": "TransferCallerNotOwnerNorApproved",
      "type": "error"
    },
    {
      "inputs": [],
      "name": "TransferFromIncorrectOwner",
      "type": "error"
    },
    {
      "inputs": [],
      "name": "TransferToNonERC721ReceiverImplementer",
      "type": "error"
    },
    {
      "inputs": [],
      "name": "TransferToZeroAddress",
      "type": "error"
    },
    {
      "inputs": [],
      "name": "URIQueryForNonexistentToken",
      "type": "error"
    },
    {
      "anonymous": false,
      "inputs": [
        {
          "indexed": true,
          "internalType": "address",
          "name": "owner",
          "type": "address"
        },
        {
          "indexed": true,
          "internalType": "address",
          "name": "approved",
          "type": "address"
        },
        {
          "indexed": true,
          "internalType": "uint256",
          "name": "tokenId",
          "type": "uint256"
        }
      ],
      "name": "Approval",
      "type": "event"
    },
    {
      "anonymous": false,
      "inputs": [
        {
          "indexed": true,
          "internalType": "address",
          "name": "owner",
          "type": "address"
        },
        {
          "indexed": true,
          "internalType": "address",
          "name": "operator",
          "type": "address"
        },
        {
          "indexed": false,
          "internalType": "bool",
          "name": "approved",
          "type": "bool"
        }
      ],
      "name": "ApprovalForAll",
      "type": "event"
    },
    {
      "anonymous": false,
      "inputs": [
        {
          "indexed": true,
          "internalType": "uint256",
          "name": "fromTokenId",
          "type": "uint256"
        },
        {
          "indexed": false,
          "internalType": "uint256",
          "name": "toTokenId",
          "type": "uint256"
        },
        {
          "indexed": true,
          "internalType": "address",
          "name": "from",
          "type": "address"
        },
        {
          "indexed": true,
          "internalType": "address",
          "name": "to",
          "type": "address"
        }
      ],
      "name": "ConsecutiveTransfer",
      "type": "event"
    },
    {
      "anonymous": false,
      "inputs": [
        {
          "indexed": true,
          "internalType": "address",
          "name": "previousOwner",
          "type": "address"
        },
        {
          "indexed": true,
          "internalType": "address",
          "name": "newOwner",
          "type": "address"
        }
      ],
      "name": "OwnershipTransferred",
      "type": "event"
    },
    {
      "anonymous": false,
      "inputs": [
        {
          "indexed": true,
          "internalType": "address",
          "name": "from",
          "type": "address"
        },
        {
          "indexed": true,
          "internalType": "address",
          "name": "to",
          "type": "address"
        },
        {
          "indexed": true,
          "internalType": "uint256",
          "name": "tokenId",
          "type": "uint256"
        }
      ],
      "name": "Transfer",
      "type": "event"
    },
    {
      "inputs": [],
      "name": "EarlyAccessCost",
      "outputs": [
        {
          "internalType": "uint256",
          "name": "",
          "type": "uint256"
        }
      ],
      "stateMutability": "view",
      "type": "function"
    },
    {
      "inputs": [
        {
          "internalType": "uint256",
          "name": "tokens",
          "type": "uint256"
        }
      ],
      "name": "EarlyAccessMint",
      "outputs": [],
      "stateMutability": "payable",
      "type": "function"
    },
    {
      "inputs": [],
      "name": "EarlyAccessMint_Live",
      "outputs": [
        {
          "internalType": "bool",
          "name": "",
          "type": "bool"
        }
      ],
      "stateMutability": "view",
      "type": "function"
    },
    {
      "inputs": [],
      "name": "EarlyAccess_Supply",
      "outputs": [
        {
          "internalType": "uint256",
          "name": "",
          "type": "uint256"
        }
      ],
      "stateMutability": "view",
      "type": "function"
    },
    {
      "inputs": [],
      "name": "MaxperWallet_EarlyAccess",
      "outputs": [
        {
          "internalType": "uint256",
          "name": "",
          "type": "uint256"
        }
      ],
      "stateMutability": "view",
      "type": "function"
    },
    {
      "inputs": [],
      "name": "MaxperWallet_PublicMint",
      "outputs": [
        {
          "internalType": "uint256",
          "name": "",
          "type": "uint256"
        }
      ],
      "stateMutability": "view",
      "type": "function"
    },
    {
      "inputs": [],
      "name": "MaxperWallet_SkeleeFriends",
      "outputs": [
        {
          "internalType": "uint256",
          "name": "",
          "type": "uint256"
        }
      ],
      "stateMutability": "view",
      "type": "function"
    },
    {
      "inputs": [
        {
          "internalType": "uint256",
          "name": "tokens",
          "type": "uint256"
        }
      ],
      "name": "PublicMint",
      "outputs": [],
      "stateMutability": "payable",
      "type": "function"
    },
    {
      "inputs": [],
      "name": "PublicMintCost",
      "outputs": [
        {
          "internalType": "uint256",
          "name": "",
          "type": "uint256"
        }
      ],
      "stateMutability": "view",
      "type": "function"
    },
    {
      "inputs": [],
      "name": "PublicMint_Live",
      "outputs": [
        {
          "internalType": "bool",
          "name": "",
          "type": "bool"
        }
      ],
      "stateMutability": "view",
      "type": "function"
    },
    {
      "inputs": [
        {
          "internalType": "uint256",
          "name": "tokens",
          "type": "uint256"
        },
        {
          "internalType": "bytes32[]",
          "name": "merkleProof",
          "type": "bytes32[]"
        }
      ],
      "name": "SkeleeFriendsMint",
      "outputs": [],
      "stateMutability": "nonpayable",
      "type": "function"
    },
    {
      "inputs": [],
      "name": "SkeleeFriendsMint_Live",
      "outputs": [
        {
          "internalType": "bool",
          "name": "",
          "type": "bool"
        }
      ],
      "stateMutability": "view",
      "type": "function"
    },
    {
      "inputs": [],
      "name": "SkeleeFriends_Supply",
      "outputs": [
        {
          "internalType": "uint256",
          "name": "",
          "type": "uint256"
        }
      ],
      "stateMutability": "view",
      "type": "function"
    },
    {
      "inputs": [
        {
          "internalType": "address",
          "name": "to",
          "type": "address"
        },
        {
          "internalType": "uint256",
          "name": "tokenId",
          "type": "uint256"
        }
      ],
      "name": "approve",
      "outputs": [],
      "stateMutability": "payable",
      "type": "function"
    },
    {
      "inputs": [
        {
          "internalType": "address",
          "name": "owner",
          "type": "address"
        }
      ],
      "name": "balanceOf",
      "outputs": [
        {
          "internalType": "uint256",
          "name": "",
          "type": "uint256"
        }
      ],
      "stateMutability": "view",
      "type": "function"
    },
    {
      "inputs": [],
      "name": "baseExtension",
      "outputs": [
        {
          "internalType": "string",
          "name": "",
          "type": "string"
        }
      ],
      "stateMutability": "view",
      "type": "function"
    },
    {
      "inputs": [],
      "name": "baseURI",
      "outputs": [
        {
          "internalType": "string",
          "name": "",
          "type": "string"
        }
      ],
      "stateMutability": "view",
      "type": "function"
    },
    {
      "inputs": [
        {
          "internalType": "uint256",
          "name": "tokenId",
          "type": "uint256"
        }
      ],
      "name": "getApproved",
      "outputs": [
        {
          "internalType": "address",
          "name": "",
          "type": "address"
        }
      ],
      "stateMutability": "view",
      "type": "function"
    },
    {
      "inputs": [
        {
          "internalType": "uint256",
          "name": "_mintAmount",
          "type": "uint256"
        },
        {
          "internalType": "address",
          "name": "destination",
          "type": "address"
        }
      ],
      "name": "gift",
      "outputs": [],
      "stateMutability": "nonpayable",
      "type": "function"
    },
    {
      "inputs": [
        {
          "internalType": "address",
          "name": "owner",
          "type": "address"
        },
        {
          "internalType": "address",
          "name": "operator",
          "type": "address"
        }
      ],
      "name": "isApprovedForAll",
      "outputs": [
        {
          "internalType": "bool",
          "name": "",
          "type": "bool"
        }
      ],
      "stateMutability": "view",
      "type": "function"
    },
    {
      "inputs": [],
      "name": "maxSupply",
      "outputs": [
        {
          "internalType": "uint256",
          "name": "",
          "type": "uint256"
        }
      ],
      "stateMutability": "view",
      "type": "function"
    },
    {
      "inputs": [],
      "name": "merkleRoot",
      "outputs": [
        {
          "internalType": "bytes32",
          "name": "",
          "type": "bytes32"
        }
      ],
      "stateMutability": "view",
      "type": "function"
    },
    {
      "inputs": [],
      "name": "name",
      "outputs": [
        {
          "internalType": "string",
          "name": "",
          "type": "string"
        }
      ],
      "stateMutability": "view",
      "type": "function"
    },
    {
      "inputs": [],
      "name": "notRevealedUri",
      "outputs": [
        {
          "internalType": "string",
          "name": "",
          "type": "string"
        }
      ],
      "stateMutability": "view",
      "type": "function"
    },
    {
      "inputs": [
        {
          "internalType": "address",
          "name": "owner",
          "type": "address"
        }
      ],
      "name": "numberMinted",
      "outputs": [
        {
          "internalType": "uint256",
          "name": "",
          "type": "uint256"
        }
      ],
      "stateMutability": "view",
      "type": "function"
    },
    {
      "inputs": [],
      "name": "owner",
      "outputs": [
        {
          "internalType": "address",
          "name": "",
          "type": "address"
        }
      ],
      "stateMutability": "view",
      "type": "function"
    },
    {
      "inputs": [
        {
          "internalType": "uint256",
          "name": "tokenId",
          "type": "uint256"
        }
      ],
      "name": "ownerOf",
      "outputs": [
        {
          "internalType": "address",
          "name": "",
          "type": "address"
        }
      ],
      "stateMutability": "view",
      "type": "function"
    },
    {
      "inputs": [
        {
          "internalType": "bool",
          "name": "_state",
          "type": "bool"
        }
      ],
      "name": "pause",
      "outputs": [],
      "stateMutability": "nonpayable",
      "type": "function"
    },
    {
      "inputs": [],
      "name": "paused",
      "outputs": [
        {
          "internalType": "bool",
          "name": "",
          "type": "bool"
        }
      ],
      "stateMutability": "view",
      "type": "function"
    },
    {
      "inputs": [],
      "name": "renounceOwnership",
      "outputs": [],
      "stateMutability": "nonpayable",
      "type": "function"
    },
    {
      "inputs": [
        {
          "internalType": "bool",
          "name": "_state",
          "type": "bool"
        }
      ],
      "name": "reveal",
      "outputs": [],
      "stateMutability": "nonpayable",
      "type": "function"
    },
    {
      "inputs": [],
      "name": "revealed",
      "outputs": [
        {
          "internalType": "bool",
          "name": "",
          "type": "bool"
        }
      ],
      "stateMutability": "view",
      "type": "function"
    },
    {
      "inputs": [
        {
          "internalType": "address",
          "name": "from",
          "type": "address"
        },
        {
          "internalType": "address",
          "name": "to",
          "type": "address"
        },
        {
          "internalType": "uint256",
          "name": "tokenId",
          "type": "uint256"
        }
      ],
      "name": "safeTransferFrom",
      "outputs": [],
      "stateMutability": "payable",
      "type": "function"
    },
    {
      "inputs": [
        {
          "internalType": "address",
          "name": "from",
          "type": "address"
        },
        {
          "internalType": "address",
          "name": "to",
          "type": "address"
        },
        {
          "internalType": "uint256",
          "name": "tokenId",
          "type": "uint256"
        },
        {
          "internalType": "bytes",
          "name": "_data",
          "type": "bytes"
        }
      ],
      "name": "safeTransferFrom",
      "outputs": [],
      "stateMutability": "payable",
      "type": "function"
    },
    {
      "inputs": [
        {
          "internalType": "address",
          "name": "operator",
          "type": "address"
        },
        {
          "internalType": "bool",
          "name": "approved",
          "type": "bool"
        }
      ],
      "name": "setApprovalForAll",
      "outputs": [],
      "stateMutability": "nonpayable",
      "type": "function"
    },
    {
      "inputs": [
        {
          "internalType": "string",
          "name": "_newBaseExtension",
          "type": "string"
        }
      ],
      "name": "setBaseExtension",
      "outputs": [],
      "stateMutability": "nonpayable",
      "type": "function"
    },
    {
      "inputs": [
        {
          "internalType": "string",
          "name": "_newBaseURI",
          "type": "string"
        }
      ],
      "name": "setBaseURI",
      "outputs": [],
      "stateMutability": "nonpayable",
      "type": "function"
    },
    {
      "inputs": [
        {
          "internalType": "uint256",
          "name": "_newCost",
          "type": "uint256"
        }
      ],
      "name": "setEarlyAccessCost",
      "outputs": [],
      "stateMutability": "nonpayable",
      "type": "function"
    },
    {
      "inputs": [
        {
          "internalType": "uint256",
          "name": "_newsupply",
          "type": "uint256"
        }
      ],
      "name": "setEarlyAccess_Supply",
      "outputs": [],
      "stateMutability": "nonpayable",
      "type": "function"
    },
    {
      "inputs": [
        {
          "internalType": "uint256",
          "name": "_limit",
          "type": "uint256"
        }
      ],
      "name": "setMaxperWallet_EarlyAccess",
      "outputs": [],
      "stateMutability": "nonpayable",
      "type": "function"
    },
    {
      "inputs": [
        {
          "internalType": "uint256",
          "name": "_limit",
          "type": "uint256"
        }
      ],
      "name": "setMaxperWallet_PublicMint",
      "outputs": [],
      "stateMutability": "nonpayable",
      "type": "function"
    },
    {
      "inputs": [
        {
          "internalType": "uint256",
          "name": "_limit",
          "type": "uint256"
        }
      ],
      "name": "setMaxperWallet_SkeleeFriends",
      "outputs": [],
      "stateMutability": "nonpayable",
      "type": "function"
    },
    {
      "inputs": [
        {
          "internalType": "uint256",
          "name": "_newsupply",
          "type": "uint256"
        }
      ],
      "name": "setMaxsupply",
      "outputs": [],
      "stateMutability": "nonpayable",
      "type": "function"
    },
    {
      "inputs": [
        {
          "internalType": "bytes32",
          "name": "_merkleRoot",
          "type": "bytes32"
        }
      ],
      "name": "setMerkleRoot",
      "outputs": [],
      "stateMutability": "nonpayable",
      "type": "function"
    },
    {
      "inputs": [
        {
          "internalType": "string",
          "name": "_notRevealedURI",
          "type": "string"
        }
      ],
      "name": "setNotRevealedURI",
      "outputs": [],
      "stateMutability": "nonpayable",
      "type": "function"
    },
    {
      "inputs": [
        {
          "internalType": "uint256",
          "name": "_newCost",
          "type": "uint256"
        }
      ],
      "name": "setPublicMintCost",
      "outputs": [],
      "stateMutability": "nonpayable",
      "type": "function"
    },
    {
      "inputs": [
        {
          "internalType": "uint256",
          "name": "_newsupply",
          "type": "uint256"
        }
      ],
      "name": "setSkeleeFriends_Supply",
      "outputs": [],
      "stateMutability": "nonpayable",
      "type": "function"
    },
    {
      "inputs": [
        {
          "internalType": "bytes4",
          "name": "interfaceId",
          "type": "bytes4"
        }
      ],
      "name": "supportsInterface",
      "outputs": [
        {
          "internalType": "bool",
          "name": "",
          "type": "bool"
        }
      ],
      "stateMutability": "view",
      "type": "function"
    },
    {
      "inputs": [],
      "name": "symbol",
      "outputs": [
        {
          "internalType": "string",
          "name": "",
          "type": "string"
        }
      ],
      "stateMutability": "view",
      "type": "function"
    },
    {
      "inputs": [
        {
          "internalType": "bool",
          "name": "_state",
          "type": "bool"
        }
      ],
      "name": "toggle_EarlyAccessMint_Live",
      "outputs": [],
      "stateMutability": "nonpayable",
      "type": "function"
    },
    {
      "inputs": [
        {
          "internalType": "bool",
          "name": "_state",
          "type": "bool"
        }
      ],
      "name": "toggle_PublicMint_Live",
      "outputs": [],
      "stateMutability": "nonpayable",
      "type": "function"
    },
    {
      "inputs": [
        {
          "internalType": "bool",
          "name": "_state",
          "type": "bool"
        }
      ],
      "name": "toggle_SkeleeFriendsMint_Live",
      "outputs": [],
      "stateMutability": "nonpayable",
      "type": "function"
    },
    {
      "inputs": [
        {
          "internalType": "uint256",
          "name": "tokenId",
          "type": "uint256"
        }
      ],
      "name": "tokenURI",
      "outputs": [
        {
          "internalType": "string",
          "name": "",
          "type": "string"
        }
      ],
      "stateMutability": "view",
      "type": "function"
    },
    {
      "inputs": [],
      "name": "totalSupply",
      "outputs": [
        {
          "internalType": "uint256",
          "name": "",
          "type": "uint256"
        }
      ],
      "stateMutability": "view",
      "type": "function"
    },
    {
      "inputs": [
        {
          "internalType": "address",
          "name": "from",
          "type": "address"
        },
        {
          "internalType": "address",
          "name": "to",
          "type": "address"
        },
        {
          "internalType": "uint256",
          "name": "tokenId",
          "type": "uint256"
        }
      ],
      "name": "transferFrom",
      "outputs": [],
      "stateMutability": "payable",
      "type": "function"
    },
    {
      "inputs": [
        {
          "internalType": "address",
          "name": "newOwner",
          "type": "address"
        }
      ],
      "name": "transferOwnership",
      "outputs": [],
      "stateMutability": "nonpayable",
      "type": "function"
    },
    {
      "inputs": [],
      "name": "withdraw",
      "outputs": [],
      "stateMutability": "payable",
      "type": "function"
    }
  ],
  "bytecode": "0x60c06040526005608081905264173539b7b760d91b60a09081526200002891600b919062000246565b5060405180606001604052806036815260200162002c406036913980516200005991600c9160209091019062000246565b5067011c37937e080000600d556701bc16d674ec8000600e55611e61600f55606460105560fa6011556005601255600260135560016014556015805464ffffffffff19166401000000011790556000601655348015620000b857600080fd5b5060405162002c7638038062002c76833981016040819052620000db9162000302565b60405180604001604052806006815260200165536b656c656560d01b81525060405180604001604052806006815260200165736b656c656560d01b81525081600290805190602001906200013192919062000246565b5080516200014790600390602084019062000246565b50506000805550620001593362000170565b60016009556200016981620001c2565b506200041b565b600880546001600160a01b038381166001600160a01b0319831681179093556040519116919082907f8be0079c531659141344cd1fd0a4f28419497f9722a3daafe3b4186f6b6457e090600090a35050565b620001cc620001e5565b8051620001e190600a90602084019062000246565b5050565b6008546001600160a01b03163314620002445760405162461bcd60e51b815260206004820181905260248201527f4f776e61626c653a2063616c6c6572206973206e6f7420746865206f776e6572604482015260640160405180910390fd5b565b8280546200025490620003de565b90600052602060002090601f016020900481019282620002785760008555620002c3565b82601f106200029357805160ff1916838001178555620002c3565b82800160010185558215620002c3579182015b82811115620002c3578251825591602001919060010190620002a6565b50620002d1929150620002d5565b5090565b5b80821115620002d15760008155600101620002d6565b634e487b7160e01b600052604160045260246000fd5b600060208083850312156200031657600080fd5b82516001600160401b03808211156200032e57600080fd5b818501915085601f8301126200034357600080fd5b815181811115620003585762000358620002ec565b604051601f8201601f19908116603f01168101908382118183101715620003835762000383620002ec565b8160405282815288868487010111156200039c57600080fd5b600093505b82841015620003c05784840186015181850187015292850192620003a1565b82841115620003d25760008684830101525b98975050505050505050565b600181811c90821680620003f357607f821691505b602082108114156200041557634e487b7160e01b600052602260045260246000fd5b50919050565b612815806200042b6000396000f3fe6080604052600436106103765760003560e01c80636c0360eb116101d1578063a343b5d211610102578063d5593927116100a0578063e985e9c51161006f578063e985e9c514610952578063f048ba361461099b578063f2c4ce1e146109bb578063f2fde38b146109db57600080fd5b8063d5593927146108e6578063d5abeb01146108fc578063da3ef23f14610912578063dc33e6811461093257600080fd5b8063c6682862116100dc578063c668286214610871578063c87b56dd14610886578063d0c62272146108a6578063d5525b37146108c657600080fd5b8063a343b5d214610828578063ab35b02a14610848578063b88d4fde1461085e57600080fd5b806383af89721161016f57806395d89b411161014957806395d89b41146107ca578063986b596d146107df5780639fb17e34146107f5578063a22cb4651461080857600080fd5b806383af8972146107765780638da5cb5b1461078c578063940cd05b146107aa57600080fd5b8063715018a6116101ab578063715018a6146107015780637cb647591461071657806380eae5781461073657806383a076be1461075657600080fd5b80636c0360eb146106ac5780636c8b8865146106c157806370a08231146106e157600080fd5b8063375cff43116102ab57806351830227116102495780635c975abb116102235780635c975abb1461063c57806360fca78414610656578063613cb469146106765780636352211e1461068c57600080fd5b806351830227146105dd57806355f804b3146105fc5780635abeb2a31461061c57600080fd5b806340bc5a131161028557806340bc5a131461057357806342842e0e1461059457806349cc13fa146105a75780634ae6157d146105c757600080fd5b8063375cff43146105385780633ccfd60b1461054b5780633e06c4221461055357600080fd5b8063149835a0116103185780631dc233f4116102f25780631dc233f4146104d957806323b872dd146104f957806327b92c8d1461050c5780632eb4a7ab1461052257600080fd5b8063149835a01461047457806317f0f1311461049457806318160ddd146104b657600080fd5b8063081812fc11610354578063081812fc146103f4578063081c8c441461042c578063095ea7b31461044157806311c651421461045457600080fd5b806301ffc9a71461037b57806302329a29146103b057806306fdde03146103d2575b600080fd5b34801561038757600080fd5b5061039b6103963660046121bd565b6109fb565b60405190151581526020015b60405180910390f35b3480156103bc57600080fd5b506103d06103cb3660046121ef565b610a4d565b005b3480156103de57600080fd5b506103e7610a68565b6040516103a79190612262565b34801561040057600080fd5b5061041461040f366004612275565b610afa565b6040516001600160a01b0390911681526020016103a7565b34801561043857600080fd5b506103e7610b3e565b6103d061044f3660046122a5565b610bcc565b34801561046057600080fd5b506103d061046f366004612275565b610c6c565b34801561048057600080fd5b506103d061048f366004612275565b610c79565b3480156104a057600080fd5b5060155461039b90640100000000900460ff1681565b3480156104c257600080fd5b50600154600054035b6040519081526020016103a7565b3480156104e557600080fd5b5060155461039b9062010000900460ff1681565b6103d06105073660046122cf565b610c86565b34801561051857600080fd5b506104cb60115481565b34801561052e57600080fd5b506104cb60165481565b6103d0610546366004612275565b610e17565b6103d06110cb565b34801561055f57600080fd5b506103d061056e3660046121ef565b61113d565b34801561057f57600080fd5b5060155461039b906301000000900460ff1681565b6103d06105a23660046122cf565b611165565b3480156105b357600080fd5b506103d06105c23660046121ef565b611185565b3480156105d357600080fd5b506104cb60125481565b3480156105e957600080fd5b5060155461039b90610100900460ff1681565b34801561060857600080fd5b506103d0610617366004612397565b6111ab565b34801561062857600080fd5b506103d0610637366004612275565b6111ca565b34801561064857600080fd5b5060155461039b9060ff1681565b34801561066257600080fd5b506103d0610671366004612275565b6111d7565b34801561068257600080fd5b506104cb600e5481565b34801561069857600080fd5b506104146106a7366004612275565b6111e4565b3480156106b857600080fd5b506103e76111ef565b3480156106cd57600080fd5b506103d06106dc3660046121ef565b6111fc565b3480156106ed57600080fd5b506104cb6106fc3660046123e0565b611220565b34801561070d57600080fd5b506103d061126f565b34801561072257600080fd5b506103d0610731366004612275565b611281565b34801561074257600080fd5b506103d0610751366004612275565b61128e565b34801561076257600080fd5b506103d06107713660046123fb565b61129b565b34801561078257600080fd5b506104cb60105481565b34801561079857600080fd5b506008546001600160a01b0316610414565b3480156107b657600080fd5b506103d06107c53660046121ef565b611337565b3480156107d657600080fd5b506103e7611359565b3480156107eb57600080fd5b506104cb600d5481565b6103d0610803366004612275565b611368565b34801561081457600080fd5b506103d0610823366004612427565b611506565b34801561083457600080fd5b506103d0610843366004612275565b611572565b34801561085457600080fd5b506104cb60145481565b6103d061086c366004612451565b61157f565b34801561087d57600080fd5b506103e76115c9565b34801561089257600080fd5b506103e76108a1366004612275565b6115d6565b3480156108b257600080fd5b506103d06108c1366004612275565b611746565b3480156108d257600080fd5b506103d06108e13660046124cd565b611753565b3480156108f257600080fd5b506104cb60135481565b34801561090857600080fd5b506104cb600f5481565b34801561091e57600080fd5b506103d061092d366004612397565b611a3b565b34801561093e57600080fd5b506104cb61094d3660046123e0565b611a56565b34801561095e57600080fd5b5061039b61096d36600461254c565b6001600160a01b03918216600090815260076020908152604080832093909416825291909152205460ff1690565b3480156109a757600080fd5b506103d06109b6366004612275565b611a61565b3480156109c757600080fd5b506103d06109d6366004612397565b611a6e565b3480156109e757600080fd5b506103d06109f63660046123e0565b611a89565b60006301ffc9a760e01b6001600160e01b031983161480610a2c57506380ac58cd60e01b6001600160e01b03198316145b80610a475750635b5e139f60e01b6001600160e01b03198316145b92915050565b610a55611aff565b6015805460ff1916911515919091179055565b606060028054610a7790612576565b80601f0160208091040260200160405190810160405280929190818152602001828054610aa390612576565b8015610af05780601f10610ac557610100808354040283529160200191610af0565b820191906000526020600020905b815481529060010190602001808311610ad357829003601f168201915b5050505050905090565b6000610b0582611b59565b610b22576040516333d1c03960e21b815260040160405180910390fd5b506000908152600660205260409020546001600160a01b031690565b600c8054610b4b90612576565b80601f0160208091040260200160405190810160405280929190818152602001828054610b7790612576565b8015610bc45780601f10610b9957610100808354040283529160200191610bc4565b820191906000526020600020905b815481529060010190602001808311610ba757829003601f168201915b505050505081565b6000610bd7826111e4565b9050336001600160a01b03821614610c1057610bf3813361096d565b610c10576040516367d9dca160e11b815260040160405180910390fd5b60008281526006602052604080822080546001600160a01b0319166001600160a01b0387811691821790925591518593918516917f8c5be1e5ebec7d5bd14f71427d1e84f3dd0314c0f7b2291e5b200ac8c7c3b92591a4505050565b610c74611aff565b601355565b610c81611aff565b600f55565b6000610c9182611b80565b9050836001600160a01b0316816001600160a01b031614610cc45760405162a1148160e81b815260040160405180910390fd5b60008281526006602052604090208054338082146001600160a01b03881690911417610d1157610cf4863361096d565b610d1157604051632ce44b5f60e11b815260040160405180910390fd5b6001600160a01b038516610d3857604051633a954ecd60e21b815260040160405180910390fd5b8015610d4357600082555b6001600160a01b038681166000908152600560205260408082208054600019019055918716808252919020805460010190554260a01b17600160e11b17600085815260046020526040902055600160e11b8316610dce5760018401600081815260046020526040902054610dcc576000548114610dcc5760008181526004602052604090208490555b505b83856001600160a01b0316876001600160a01b03167fddf252ad1be2c89b69c2b068fc378daa952ba7f163c4a11628f55a4df523b3ef60405160405180910390a4505050505050565b610e1f611be1565b60155460ff1615610e4b5760405162461bcd60e51b8152600401610e42906125b1565b60405180910390fd5b6015546301000000900460ff16610e9e5760405162461bcd60e51b815260206004820152601760248201527614d85b194812185cdb89dd081cdd185c9d1959081e595d604a1b6044820152606401610e42565b6000610ead6001546000540390565b9050610eed610ec46008546001600160a01b031690565b6001600160a01b03166000908152600560205260409081902054901c67ffffffffffffffff1690565b601154601054610efd91906125fe565b610f0791906125fe565b610f1183836125fe565b1115610f5f5760405162461bcd60e51b815260206004820152601e60248201527f4d696e74207068617365206d617820537570706c7920657863656564656400006044820152606401610e42565b60008211610f7f5760405162461bcd60e51b8152600401610e4290612616565b601354821115610fd15760405162461bcd60e51b815260206004820152601f60248201527f6d6178206d696e7420616d6f756e7420706572207478206578636565646564006044820152606401610e42565b600f54610fde83836125fe565b1115610ffc5760405162461bcd60e51b8152600401610e429061264d565b6013548261100933610ec4565b61101391906125fe565b11156110615760405162461bcd60e51b815260206004820152601d60248201527f204d6178204e465473205065722057616c6c65742065786365656465640000006044820152606401610e42565b81600d5461106f9190612671565b3410156110b35760405162461bcd60e51b8152602060048201526012602482015271696e73756666696369656e742066756e647360701b6044820152606401610e42565b6110bd3383611c3b565b506110c86001600955565b50565b6110d3611aff565b6110db611be1565b604051600090339047908381818185875af1925050503d806000811461111d576040519150601f19603f3d011682016040523d82523d6000602084013e611122565b606091505b505090508061113057600080fd5b5061113b6001600955565b565b611145611aff565b601580549115156401000000000264ff0000000019909216919091179055565b6111808383836040518060200160405280600081525061157f565b505050565b61118d611aff565b6015805491151563010000000263ff00000019909216919091179055565b6111b3611aff565b80516111c690600a90602084019061210e565b5050565b6111d2611aff565b600d55565b6111df611aff565b601055565b6000610a4782611b80565b600a8054610b4b90612576565b611204611aff565b60158054911515620100000262ff000019909216919091179055565b60006001600160a01b038216611249576040516323d3ad8160e21b815260040160405180910390fd5b506001600160a01b031660009081526005602052604090205467ffffffffffffffff1690565b611277611aff565b61113b6000611c55565b611289611aff565b601655565b611296611aff565b600e55565b6112a3611aff565b6112ab611be1565b600082116112cb5760405162461bcd60e51b8152600401610e4290612616565b60006112da6001546000540390565b600f549091506112ea84836125fe565b11156113225760405162461bcd60e51b815260206004820152600760248201526614dbdb191bdd5d60ca1b6044820152606401610e42565b61132c8284611c3b565b506111c66001600955565b61133f611aff565b601580549115156101000261ff0019909216919091179055565b606060038054610a7790612576565b611370611be1565b60155460ff16156113935760405162461bcd60e51b8152600401610e42906125b1565b60155462010000900460ff166113e55760405162461bcd60e51b815260206004820152601760248201527614d85b194812185cdb89dd081cdd185c9d1959081e595d604a1b6044820152606401610e42565b60006113f46001546000540390565b9050600082116114165760405162461bcd60e51b8152600401610e4290612616565b6012548211156114685760405162461bcd60e51b815260206004820152601f60248201527f6d6178206d696e7420616d6f756e7420706572207478206578636565646564006044820152606401610e42565b600f5461147583836125fe565b11156114935760405162461bcd60e51b8152600401610e429061264d565b601254826114a033610ec4565b6114aa91906125fe565b11156114f85760405162461bcd60e51b815260206004820152601d60248201527f204d6178204e465473205065722057616c6c65742065786365656465640000006044820152606401610e42565b81600e5461106f9190612671565b3360008181526007602090815260408083206001600160a01b03871680855290835292819020805460ff191686151590811790915590519081529192917f17307eab39ab6107e8899845ad3d59bd9653f200f220920489ca2b5937696c31910160405180910390a35050565b61157a611aff565b601155565b61158a848484610c86565b6001600160a01b0383163b156115c3576115a684848484611ca7565b6115c3576040516368d2bf6b60e11b815260040160405180910390fd5b50505050565b600b8054610b4b90612576565b60606115e182611b59565b6116465760405162461bcd60e51b815260206004820152603060248201527f455243373231414d657461646174613a2055524920717565727920666f72206e60448201526f37b732bc34b9ba32b73a103a37b5b2b760811b6064820152608401610e42565b601554610100900460ff166116e757600c805461166290612576565b80601f016020809104026020016040519081016040528092919081815260200182805461168e90612576565b80156116db5780601f106116b0576101008083540402835291602001916116db565b820191906000526020600020905b8154815290600101906020018083116116be57829003601f168201915b50505050509050919050565b60006116f1611d9f565b90506000815111611711576040518060200160405280600081525061173f565b8061171b84611dae565b600b60405160200161172f93929190612690565b6040516020818303038152906040525b9392505050565b61174e611aff565b601255565b61175b611be1565b60155460ff161561177e5760405162461bcd60e51b8152600401610e42906125b1565b601554640100000000900460ff166117d85760405162461bcd60e51b815260206004820152601d60248201527f6d696e74207068617365206861736e27742073746172746564207965740000006044820152606401610e42565b61184d828280806020026020016040519081016040528093929190818152602001838360200280828437600092019190915250506016546040516bffffffffffffffffffffffff193360601b166020820152909250603401905060405160208183030381529060405280519060200120611e4b565b6118995760405162461bcd60e51b815260206004820152601860248201527f20596f7520617265206e6f742077686974656c697374656400000000000000006044820152606401610e42565b60006118a86001546000540390565b90506118bf610ec46008546001600160a01b031690565b6010546118cc91906125fe565b6118d685836125fe565b11156119245760405162461bcd60e51b815260206004820152601e60248201527f4d696e74207068617365206d617820537570706c7920657863656564656400006044820152606401610e42565b6014548461193133610ec4565b61193b91906125fe565b11156119895760405162461bcd60e51b815260206004820152601c60248201527f4d6178204e465473205065722057616c6c6574206578636565646564000000006044820152606401610e42565b600084116119a95760405162461bcd60e51b8152600401610e4290612616565b600f546119b685836125fe565b11156119d45760405162461bcd60e51b8152600401610e429061264d565b601454841115611a265760405162461bcd60e51b815260206004820152601860248201527f6d6178206d696e742070657220547820657863656564656400000000000000006044820152606401610e42565b611a303385611c3b565b506111806001600955565b611a43611aff565b80516111c690600b90602084019061210e565b6000610a4782610ec4565b611a69611aff565b601455565b611a76611aff565b80516111c690600c90602084019061210e565b611a91611aff565b6001600160a01b038116611af65760405162461bcd60e51b815260206004820152602660248201527f4f776e61626c653a206e6577206f776e657220697320746865207a65726f206160448201526564647265737360d01b6064820152608401610e42565b6110c881611c55565b6008546001600160a01b0316331461113b5760405162461bcd60e51b815260206004820181905260248201527f4f776e61626c653a2063616c6c6572206973206e6f7420746865206f776e65726044820152606401610e42565b6000805482108015610a47575050600090815260046020526040902054600160e01b161590565b600081600054811015611bc857600081815260046020526040902054600160e01b8116611bc6575b8061173f575060001901600081815260046020526040902054611ba8565b505b604051636f96cda160e11b815260040160405180910390fd5b60026009541415611c345760405162461bcd60e51b815260206004820152601f60248201527f5265656e7472616e637947756172643a207265656e7472616e742063616c6c006044820152606401610e42565b6002600955565b6111c6828260405180602001604052806000815250611e61565b600880546001600160a01b038381166001600160a01b0319831681179093556040519116919082907f8be0079c531659141344cd1fd0a4f28419497f9722a3daafe3b4186f6b6457e090600090a35050565b604051630a85bd0160e11b81526000906001600160a01b0385169063150b7a0290611cdc903390899088908890600401612754565b602060405180830381600087803b158015611cf657600080fd5b505af1925050508015611d26575060408051601f3d908101601f19168201909252611d2391810190612791565b60015b611d81573d808015611d54576040519150601f19603f3d011682016040523d82523d6000602084013e611d59565b606091505b508051611d79576040516368d2bf6b60e11b815260040160405180910390fd5b805181602001fd5b6001600160e01b031916630a85bd0160e11b1490505b949350505050565b6060600a8054610a7790612576565b60606000611dbb83611ece565b600101905060008167ffffffffffffffff811115611ddb57611ddb61230b565b6040519080825280601f01601f191660200182016040528015611e05576020820181803683370190505b5090508181016020015b600019016f181899199a1a9b1b9c1cb0b131b232b360811b600a86061a8153600a8504945084611e3e57611e43565b611e0f565b509392505050565b600082611e588584611fa6565b14949350505050565b611e6b8383611feb565b6001600160a01b0383163b15611180576000548281035b611e956000868380600101945086611ca7565b611eb2576040516368d2bf6b60e11b815260040160405180910390fd5b818110611e82578160005414611ec757600080fd5b5050505050565b60008072184f03e93ff9f4daa797ed6e38ed64bf6a1f0160401b8310611f0d5772184f03e93ff9f4daa797ed6e38ed64bf6a1f0160401b830492506040015b6d04ee2d6d415b85acef81000000008310611f39576d04ee2d6d415b85acef8100000000830492506020015b662386f26fc100008310611f5757662386f26fc10000830492506010015b6305f5e1008310611f6f576305f5e100830492506008015b6127108310611f8357612710830492506004015b60648310611f95576064830492506002015b600a8310610a475760010192915050565b600081815b8451811015611e4357611fd782868381518110611fca57611fca6127ae565b60200260200101516120e2565b915080611fe3816127c4565b915050611fab565b6000548161200c5760405163b562e8dd60e01b815260040160405180910390fd5b6001600160a01b03831660008181526005602090815260408083208054680100000000000000018802019055848352600490915281206001851460e11b4260a01b178317905582840190839083907fddf252ad1be2c89b69c2b068fc378daa952ba7f163c4a11628f55a4df523b3ef8180a4600183015b8181146120bb57808360007fddf252ad1be2c89b69c2b068fc378daa952ba7f163c4a11628f55a4df523b3ef600080a4600101612083565b50816120d957604051622e076360e81b815260040160405180910390fd5b60005550505050565b60008183106120fe57600082815260208490526040902061173f565b5060009182526020526040902090565b82805461211a90612576565b90600052602060002090601f01602090048101928261213c5760008555612182565b82601f1061215557805160ff1916838001178555612182565b82800160010185558215612182579182015b82811115612182578251825591602001919060010190612167565b5061218e929150612192565b5090565b5b8082111561218e5760008155600101612193565b6001600160e01b0319811681146110c857600080fd5b6000602082840312156121cf57600080fd5b813561173f816121a7565b803580151581146121ea57600080fd5b919050565b60006020828403121561220157600080fd5b61173f826121da565b60005b8381101561222557818101518382015260200161220d565b838111156115c35750506000910152565b6000815180845261224e81602086016020860161220a565b601f01601f19169290920160200192915050565b60208152600061173f6020830184612236565b60006020828403121561228757600080fd5b5035919050565b80356001600160a01b03811681146121ea57600080fd5b600080604083850312156122b857600080fd5b6122c18361228e565b946020939093013593505050565b6000806000606084860312156122e457600080fd5b6122ed8461228e565b92506122fb6020850161228e565b9150604084013590509250925092565b634e487b7160e01b600052604160045260246000fd5b600067ffffffffffffffff8084111561233c5761233c61230b565b604051601f8501601f19908116603f011681019082821181831017156123645761236461230b565b8160405280935085815286868601111561237d57600080fd5b858560208301376000602087830101525050509392505050565b6000602082840312156123a957600080fd5b813567ffffffffffffffff8111156123c057600080fd5b8201601f810184136123d157600080fd5b611d9784823560208401612321565b6000602082840312156123f257600080fd5b61173f8261228e565b6000806040838503121561240e57600080fd5b8235915061241e6020840161228e565b90509250929050565b6000806040838503121561243a57600080fd5b6124438361228e565b915061241e602084016121da565b6000806000806080858703121561246757600080fd5b6124708561228e565b935061247e6020860161228e565b925060408501359150606085013567ffffffffffffffff8111156124a157600080fd5b8501601f810187136124b257600080fd5b6124c187823560208401612321565b91505092959194509250565b6000806000604084860312156124e257600080fd5b83359250602084013567ffffffffffffffff8082111561250157600080fd5b818601915086601f83011261251557600080fd5b81358181111561252457600080fd5b8760208260051b850101111561253957600080fd5b6020830194508093505050509250925092565b6000806040838503121561255f57600080fd5b6125688361228e565b915061241e6020840161228e565b600181811c9082168061258a57607f821691505b602082108114156125ab57634e487b7160e01b600052602260045260246000fd5b50919050565b60208082526017908201527f6f6f707320636f6e747261637420697320706175736564000000000000000000604082015260600190565b634e487b7160e01b600052601160045260246000fd5b60008219821115612611576126116125e8565b500190565b6020808252601b908201527f6e65656420746f206d696e74206174206c656173742031204e46540000000000604082015260600190565b6020808252600a908201526915d94814dbdb191bdd5d60b21b604082015260600190565b600081600019048311821515161561268b5761268b6125e8565b500290565b6000845160206126a38285838a0161220a565b8551918401916126b68184848a0161220a565b8554920191600090600181811c90808316806126d357607f831692505b8583108114156126f157634e487b7160e01b85526022600452602485fd5b808015612705576001811461271657612743565b60ff19851688528388019550612743565b60008b81526020902060005b8581101561273b5781548a820152908401908801612722565b505083880195505b50939b9a5050505050505050505050565b6001600160a01b038581168252841660208201526040810183905260806060820181905260009061278790830184612236565b9695505050505050565b6000602082840312156127a357600080fd5b815161173f816121a7565b634e487b7160e01b600052603260045260246000fd5b60006000198214156127d8576127d86125e8565b506001019056fea2646970667358221220d1f2b093474edaa9d286d11c1a8beedc7d31961200157c0bc27899c5b981a96364736f6c63430008090033697066733a2f2f516d6579327743464138337a7a67634c4738616f46785547484374424777426b726a44694875444378614535373620",
  "linkReferences": {},
  "deployedLinkReferences": {}
}