{
  "_format": "hh-sol-artifact-1",
  "contractName": "Skelee",
  "sourceName": "contracts/Skelee.sol",
  "abi": [
    {
      "inputs": [
        {
          "internalType": "string",
          "name": "_initBaseURI",
          "type": "string"
        }
      ],
      "stateMutability": "nonpayable",
      "type": "constructor"
    },
    {
      "inputs": [],
      "name": "ApprovalCallerNotOwnerNorApproved",
      "type": "error"
    },
    {
      "inputs": [],
      "name": "ApprovalQueryForNonexistentToken",
      "type": "error"
    },
    {
      "inputs": [],
      "name": "BalanceQueryForZeroAddress",
      "type": "error"
    },
    {
      "inputs": [],
      "name": "MintERC2309QuantityExceedsLimit",
      "type": "error"
    },
    {
      "inputs": [],
      "name": "MintToZeroAddress",
      "type": "error"
    },
    {
      "inputs": [],
      "name": "MintZeroQuantity",
      "type": "error"
    },
    {
      "inputs": [],
      "name": "OwnerQueryForNonexistentToken",
      "type": "error"
    },
    {
      "inputs": [],
      "name": "OwnershipNotInitializedForExtraData",
      "type": "error"
    },
    {
      "inputs": [],
      "name": "TransferCallerNotOwnerNorApproved",
      "type": "error"
    },
    {
      "inputs": [],
      "name": "TransferFromIncorrectOwner",
      "type": "error"
    },
    {
      "inputs": [],
      "name": "TransferToNonERC721ReceiverImplementer",
      "type": "error"
    },
    {
      "inputs": [],
      "name": "TransferToZeroAddress",
      "type": "error"
    },
    {
      "inputs": [],
      "name": "URIQueryForNonexistentToken",
      "type": "error"
    },
    {
      "anonymous": false,
      "inputs": [
        {
          "indexed": true,
          "internalType": "address",
          "name": "owner",
          "type": "address"
        },
        {
          "indexed": true,
          "internalType": "address",
          "name": "approved",
          "type": "address"
        },
        {
          "indexed": true,
          "internalType": "uint256",
          "name": "tokenId",
          "type": "uint256"
        }
      ],
      "name": "Approval",
      "type": "event"
    },
    {
      "anonymous": false,
      "inputs": [
        {
          "indexed": true,
          "internalType": "address",
          "name": "owner",
          "type": "address"
        },
        {
          "indexed": true,
          "internalType": "address",
          "name": "operator",
          "type": "address"
        },
        {
          "indexed": false,
          "internalType": "bool",
          "name": "approved",
          "type": "bool"
        }
      ],
      "name": "ApprovalForAll",
      "type": "event"
    },
    {
      "anonymous": false,
      "inputs": [
        {
          "indexed": true,
          "internalType": "uint256",
          "name": "fromTokenId",
          "type": "uint256"
        },
        {
          "indexed": false,
          "internalType": "uint256",
          "name": "toTokenId",
          "type": "uint256"
        },
        {
          "indexed": true,
          "internalType": "address",
          "name": "from",
          "type": "address"
        },
        {
          "indexed": true,
          "internalType": "address",
          "name": "to",
          "type": "address"
        }
      ],
      "name": "ConsecutiveTransfer",
      "type": "event"
    },
    {
      "anonymous": false,
      "inputs": [
        {
          "indexed": true,
          "internalType": "contract IERC20",
          "name": "token",
          "type": "address"
        },
        {
          "indexed": false,
          "internalType": "address",
          "name": "to",
          "type": "address"
        },
        {
          "indexed": false,
          "internalType": "uint256",
          "name": "amount",
          "type": "uint256"
        }
      ],
      "name": "ERC20PaymentReleased",
      "type": "event"
    },
    {
      "anonymous": false,
      "inputs": [
        {
          "indexed": true,
          "internalType": "address",
          "name": "previousOwner",
          "type": "address"
        },
        {
          "indexed": true,
          "internalType": "address",
          "name": "newOwner",
          "type": "address"
        }
      ],
      "name": "OwnershipTransferred",
      "type": "event"
    },
    {
      "anonymous": false,
      "inputs": [
        {
          "indexed": false,
          "internalType": "address",
          "name": "account",
          "type": "address"
        },
        {
          "indexed": false,
          "internalType": "uint256",
          "name": "shares",
          "type": "uint256"
        }
      ],
      "name": "PayeeAdded",
      "type": "event"
    },
    {
      "anonymous": false,
      "inputs": [
        {
          "indexed": false,
          "internalType": "address",
          "name": "from",
          "type": "address"
        },
        {
          "indexed": false,
          "internalType": "uint256",
          "name": "amount",
          "type": "uint256"
        }
      ],
      "name": "PaymentReceived",
      "type": "event"
    },
    {
      "anonymous": false,
      "inputs": [
        {
          "indexed": false,
          "internalType": "address",
          "name": "to",
          "type": "address"
        },
        {
          "indexed": false,
          "internalType": "uint256",
          "name": "amount",
          "type": "uint256"
        }
      ],
      "name": "PaymentReleased",
      "type": "event"
    },
    {
      "anonymous": false,
      "inputs": [
        {
          "indexed": true,
          "internalType": "address",
          "name": "from",
          "type": "address"
        },
        {
          "indexed": true,
          "internalType": "address",
          "name": "to",
          "type": "address"
        },
        {
          "indexed": true,
          "internalType": "uint256",
          "name": "tokenId",
          "type": "uint256"
        }
      ],
      "name": "Transfer",
      "type": "event"
    },
    {
      "inputs": [],
      "name": "MaxperWallet",
      "outputs": [
        {
          "internalType": "uint256",
          "name": "",
          "type": "uint256"
        }
      ],
      "stateMutability": "view",
      "type": "function"
    },
    {
      "inputs": [],
      "name": "MaxperWalletWL",
      "outputs": [
        {
          "internalType": "uint256",
          "name": "",
          "type": "uint256"
        }
      ],
      "stateMutability": "view",
      "type": "function"
    },
    {
      "inputs": [
        {
          "internalType": "uint256",
          "name": "tokens",
          "type": "uint256"
        },
        {
          "internalType": "bytes32[]",
          "name": "merkleProof",
          "type": "bytes32[]"
        }
      ],
      "name": "WlMint",
      "outputs": [],
      "stateMutability": "payable",
      "type": "function"
    },
    {
      "inputs": [
        {
          "internalType": "address",
          "name": "to",
          "type": "address"
        },
        {
          "internalType": "uint256",
          "name": "tokenId",
          "type": "uint256"
        }
      ],
      "name": "approve",
      "outputs": [],
      "stateMutability": "payable",
      "type": "function"
    },
    {
      "inputs": [
        {
          "internalType": "address",
          "name": "owner",
          "type": "address"
        }
      ],
      "name": "balanceOf",
      "outputs": [
        {
          "internalType": "uint256",
          "name": "",
          "type": "uint256"
        }
      ],
      "stateMutability": "view",
      "type": "function"
    },
    {
      "inputs": [],
      "name": "baseExtension",
      "outputs": [
        {
          "internalType": "string",
          "name": "",
          "type": "string"
        }
      ],
      "stateMutability": "view",
      "type": "function"
    },
    {
      "inputs": [],
      "name": "baseURI",
      "outputs": [
        {
          "internalType": "string",
          "name": "",
          "type": "string"
        }
      ],
      "stateMutability": "view",
      "type": "function"
    },
    {
      "inputs": [],
      "name": "cost",
      "outputs": [
        {
          "internalType": "uint256",
          "name": "",
          "type": "uint256"
        }
      ],
      "stateMutability": "view",
      "type": "function"
    },
    {
      "inputs": [
        {
          "internalType": "uint256",
          "name": "tokenId",
          "type": "uint256"
        }
      ],
      "name": "getApproved",
      "outputs": [
        {
          "internalType": "address",
          "name": "",
          "type": "address"
        }
      ],
      "stateMutability": "view",
      "type": "function"
    },
    {
      "inputs": [
        {
          "internalType": "uint256",
          "name": "_mintAmount",
          "type": "uint256"
        },
        {
          "internalType": "address",
          "name": "destination",
          "type": "address"
        }
      ],
      "name": "gift",
      "outputs": [],
      "stateMutability": "nonpayable",
      "type": "function"
    },
    {
      "inputs": [
        {
          "internalType": "address",
          "name": "owner",
          "type": "address"
        },
        {
          "internalType": "address",
          "name": "operator",
          "type": "address"
        }
      ],
      "name": "isApprovedForAll",
      "outputs": [
        {
          "internalType": "bool",
          "name": "",
          "type": "bool"
        }
      ],
      "stateMutability": "view",
      "type": "function"
    },
    {
      "inputs": [],
      "name": "maxSupply",
      "outputs": [
        {
          "internalType": "uint256",
          "name": "",
          "type": "uint256"
        }
      ],
      "stateMutability": "view",
      "type": "function"
    },
    {
      "inputs": [],
      "name": "merkleRoot",
      "outputs": [
        {
          "internalType": "bytes32",
          "name": "",
          "type": "bytes32"
        }
      ],
      "stateMutability": "view",
      "type": "function"
    },
    {
      "inputs": [],
      "name": "name",
      "outputs": [
        {
          "internalType": "string",
          "name": "",
          "type": "string"
        }
      ],
      "stateMutability": "view",
      "type": "function"
    },
    {
      "inputs": [],
      "name": "notRevealedUri",
      "outputs": [
        {
          "internalType": "string",
          "name": "",
          "type": "string"
        }
      ],
      "stateMutability": "view",
      "type": "function"
    },
    {
      "inputs": [
        {
          "internalType": "address",
          "name": "owner",
          "type": "address"
        }
      ],
      "name": "numberMinted",
      "outputs": [
        {
          "internalType": "uint256",
          "name": "",
          "type": "uint256"
        }
      ],
      "stateMutability": "view",
      "type": "function"
    },
    {
      "inputs": [],
      "name": "owner",
      "outputs": [
        {
          "internalType": "address",
          "name": "",
          "type": "address"
        }
      ],
      "stateMutability": "view",
      "type": "function"
    },
    {
      "inputs": [
        {
          "internalType": "uint256",
          "name": "tokenId",
          "type": "uint256"
        }
      ],
      "name": "ownerOf",
      "outputs": [
        {
          "internalType": "address",
          "name": "",
          "type": "address"
        }
      ],
      "stateMutability": "view",
      "type": "function"
    },
    {
      "inputs": [
        {
          "internalType": "bool",
          "name": "_state",
          "type": "bool"
        }
      ],
      "name": "pause",
      "outputs": [],
      "stateMutability": "nonpayable",
      "type": "function"
    },
    {
      "inputs": [],
      "name": "paused",
      "outputs": [
        {
          "internalType": "bool",
          "name": "",
          "type": "bool"
        }
      ],
      "stateMutability": "view",
      "type": "function"
    },
    {
      "inputs": [
        {
          "internalType": "uint256",
          "name": "index",
          "type": "uint256"
        }
      ],
      "name": "payee",
      "outputs": [
        {
          "internalType": "address",
          "name": "",
          "type": "address"
        }
      ],
      "stateMutability": "view",
      "type": "function"
    },
    {
      "inputs": [],
      "name": "publicSale",
      "outputs": [
        {
          "internalType": "bool",
          "name": "",
          "type": "bool"
        }
      ],
      "stateMutability": "view",
      "type": "function"
    },
    {
      "inputs": [
        {
          "internalType": "uint256",
          "name": "tokens",
          "type": "uint256"
        }
      ],
      "name": "publicSaleMint",
      "outputs": [],
      "stateMutability": "payable",
      "type": "function"
    },
    {
      "inputs": [
        {
          "internalType": "address",
          "name": "account",
          "type": "address"
        }
      ],
      "name": "releasable",
      "outputs": [
        {
          "internalType": "uint256",
          "name": "",
          "type": "uint256"
        }
      ],
      "stateMutability": "view",
      "type": "function"
    },
    {
      "inputs": [
        {
          "internalType": "contract IERC20",
          "name": "token",
          "type": "address"
        },
        {
          "internalType": "address",
          "name": "account",
          "type": "address"
        }
      ],
      "name": "releasable",
      "outputs": [
        {
          "internalType": "uint256",
          "name": "",
          "type": "uint256"
        }
      ],
      "stateMutability": "view",
      "type": "function"
    },
    {
      "inputs": [
        {
          "internalType": "address payable",
          "name": "account",
          "type": "address"
        }
      ],
      "name": "release",
      "outputs": [],
      "stateMutability": "nonpayable",
      "type": "function"
    },
    {
      "inputs": [
        {
          "internalType": "contract IERC20",
          "name": "token",
          "type": "address"
        },
        {
          "internalType": "address",
          "name": "account",
          "type": "address"
        }
      ],
      "name": "release",
      "outputs": [],
      "stateMutability": "nonpayable",
      "type": "function"
    },
    {
      "inputs": [
        {
          "internalType": "contract IERC20",
          "name": "token",
          "type": "address"
        },
        {
          "internalType": "address",
          "name": "account",
          "type": "address"
        }
      ],
      "name": "released",
      "outputs": [
        {
          "internalType": "uint256",
          "name": "",
          "type": "uint256"
        }
      ],
      "stateMutability": "view",
      "type": "function"
    },
    {
      "inputs": [
        {
          "internalType": "address",
          "name": "account",
          "type": "address"
        }
      ],
      "name": "released",
      "outputs": [
        {
          "internalType": "uint256",
          "name": "",
          "type": "uint256"
        }
      ],
      "stateMutability": "view",
      "type": "function"
    },
    {
      "inputs": [],
      "name": "renounceOwnership",
      "outputs": [],
      "stateMutability": "nonpayable",
      "type": "function"
    },
    {
      "inputs": [
        {
          "internalType": "bool",
          "name": "_state",
          "type": "bool"
        }
      ],
      "name": "reveal",
      "outputs": [],
      "stateMutability": "nonpayable",
      "type": "function"
    },
    {
      "inputs": [],
      "name": "revealed",
      "outputs": [
        {
          "internalType": "bool",
          "name": "",
          "type": "bool"
        }
      ],
      "stateMutability": "view",
      "type": "function"
    },
    {
      "inputs": [
        {
          "internalType": "address",
          "name": "from",
          "type": "address"
        },
        {
          "internalType": "address",
          "name": "to",
          "type": "address"
        },
        {
          "internalType": "uint256",
          "name": "tokenId",
          "type": "uint256"
        }
      ],
      "name": "safeTransferFrom",
      "outputs": [],
      "stateMutability": "payable",
      "type": "function"
    },
    {
      "inputs": [
        {
          "internalType": "address",
          "name": "from",
          "type": "address"
        },
        {
          "internalType": "address",
          "name": "to",
          "type": "address"
        },
        {
          "internalType": "uint256",
          "name": "tokenId",
          "type": "uint256"
        },
        {
          "internalType": "bytes",
          "name": "_data",
          "type": "bytes"
        }
      ],
      "name": "safeTransferFrom",
      "outputs": [],
      "stateMutability": "payable",
      "type": "function"
    },
    {
      "inputs": [
        {
          "internalType": "address",
          "name": "operator",
          "type": "address"
        },
        {
          "internalType": "bool",
          "name": "approved",
          "type": "bool"
        }
      ],
      "name": "setApprovalForAll",
      "outputs": [],
      "stateMutability": "nonpayable",
      "type": "function"
    },
    {
      "inputs": [
        {
          "internalType": "string",
          "name": "_newBaseExtension",
          "type": "string"
        }
      ],
      "name": "setBaseExtension",
      "outputs": [],
      "stateMutability": "nonpayable",
      "type": "function"
    },
    {
      "inputs": [
        {
          "internalType": "string",
          "name": "_newBaseURI",
          "type": "string"
        }
      ],
      "name": "setBaseURI",
      "outputs": [],
      "stateMutability": "nonpayable",
      "type": "function"
    },
    {
      "inputs": [
        {
          "internalType": "uint256",
          "name": "_newCost",
          "type": "uint256"
        }
      ],
      "name": "setCost",
      "outputs": [],
      "stateMutability": "nonpayable",
      "type": "function"
    },
    {
      "inputs": [
        {
          "internalType": "uint256",
          "name": "_limit",
          "type": "uint256"
        }
      ],
      "name": "setMaxPerWallet",
      "outputs": [],
      "stateMutability": "nonpayable",
      "type": "function"
    },
    {
      "inputs": [
        {
          "internalType": "uint256",
          "name": "_limit",
          "type": "uint256"
        }
      ],
      "name": "setMaxperWalletWL",
      "outputs": [],
      "stateMutability": "nonpayable",
      "type": "function"
    },
    {
      "inputs": [
        {
          "internalType": "uint256",
          "name": "_newsupply",
          "type": "uint256"
        }
      ],
      "name": "setMaxsupply",
      "outputs": [],
      "stateMutability": "nonpayable",
      "type": "function"
    },
    {
      "inputs": [
        {
          "internalType": "bytes32",
          "name": "_merkleRoot",
          "type": "bytes32"
        }
      ],
      "name": "setMerkleRoot",
      "outputs": [],
      "stateMutability": "nonpayable",
      "type": "function"
    },
    {
      "inputs": [
        {
          "internalType": "string",
          "name": "_notRevealedURI",
          "type": "string"
        }
      ],
      "name": "setNotRevealedURI",
      "outputs": [],
      "stateMutability": "nonpayable",
      "type": "function"
    },
    {
      "inputs": [
        {
          "internalType": "uint256",
          "name": "_newCost",
          "type": "uint256"
        }
      ],
      "name": "setwlCost",
      "outputs": [],
      "stateMutability": "nonpayable",
      "type": "function"
    },
    {
      "inputs": [
        {
          "internalType": "address",
          "name": "account",
          "type": "address"
        }
      ],
      "name": "shares",
      "outputs": [
        {
          "internalType": "uint256",
          "name": "",
          "type": "uint256"
        }
      ],
      "stateMutability": "view",
      "type": "function"
    },
    {
      "inputs": [
        {
          "internalType": "bytes4",
          "name": "interfaceId",
          "type": "bytes4"
        }
      ],
      "name": "supportsInterface",
      "outputs": [
        {
          "internalType": "bool",
          "name": "",
          "type": "bool"
        }
      ],
      "stateMutability": "view",
      "type": "function"
    },
    {
      "inputs": [],
      "name": "symbol",
      "outputs": [
        {
          "internalType": "string",
          "name": "",
          "type": "string"
        }
      ],
      "stateMutability": "view",
      "type": "function"
    },
    {
      "inputs": [
        {
          "internalType": "bool",
          "name": "_state",
          "type": "bool"
        }
      ],
      "name": "toggleWlMint",
      "outputs": [],
      "stateMutability": "nonpayable",
      "type": "function"
    },
    {
      "inputs": [
        {
          "internalType": "bool",
          "name": "_state",
          "type": "bool"
        }
      ],
      "name": "togglepublicSale",
      "outputs": [],
      "stateMutability": "nonpayable",
      "type": "function"
    },
    {
      "inputs": [
        {
          "internalType": "uint256",
          "name": "tokenId",
          "type": "uint256"
        }
      ],
      "name": "tokenURI",
      "outputs": [
        {
          "internalType": "string",
          "name": "",
          "type": "string"
        }
      ],
      "stateMutability": "view",
      "type": "function"
    },
    {
      "inputs": [
        {
          "internalType": "contract IERC20",
          "name": "token",
          "type": "address"
        }
      ],
      "name": "totalReleased",
      "outputs": [
        {
          "internalType": "uint256",
          "name": "",
          "type": "uint256"
        }
      ],
      "stateMutability": "view",
      "type": "function"
    },
    {
      "inputs": [],
      "name": "totalReleased",
      "outputs": [
        {
          "internalType": "uint256",
          "name": "",
          "type": "uint256"
        }
      ],
      "stateMutability": "view",
      "type": "function"
    },
    {
      "inputs": [],
      "name": "totalShares",
      "outputs": [
        {
          "internalType": "uint256",
          "name": "",
          "type": "uint256"
        }
      ],
      "stateMutability": "view",
      "type": "function"
    },
    {
      "inputs": [],
      "name": "totalSupply",
      "outputs": [
        {
          "internalType": "uint256",
          "name": "",
          "type": "uint256"
        }
      ],
      "stateMutability": "view",
      "type": "function"
    },
    {
      "inputs": [
        {
          "internalType": "address",
          "name": "from",
          "type": "address"
        },
        {
          "internalType": "address",
          "name": "to",
          "type": "address"
        },
        {
          "internalType": "uint256",
          "name": "tokenId",
          "type": "uint256"
        }
      ],
      "name": "transferFrom",
      "outputs": [],
      "stateMutability": "payable",
      "type": "function"
    },
    {
      "inputs": [
        {
          "internalType": "address",
          "name": "newOwner",
          "type": "address"
        }
      ],
      "name": "transferOwnership",
      "outputs": [],
      "stateMutability": "nonpayable",
      "type": "function"
    },
    {
      "inputs": [],
      "name": "wlCost",
      "outputs": [
        {
          "internalType": "uint256",
          "name": "",
          "type": "uint256"
        }
      ],
      "stateMutability": "view",
      "type": "function"
    },
    {
      "inputs": [],
      "name": "wlMint",
      "outputs": [
        {
          "internalType": "bool",
          "name": "",
          "type": "bool"
        }
      ],
      "stateMutability": "view",
      "type": "function"
    },
    {
      "stateMutability": "payable",
      "type": "receive"
    }
  ],
  "bytecode": "0x60c06040526005608081905264173539b7b760d91b60a090815262000028916012919062000644565b50662386f26fc1000060145560006015819055611f40601655606460175560056018556019805463ffffffff19166301000100179055601a556040805180820190915260288152603c60208201526200008690601b906002620006d3565b50604080518082019091527332eb5d87d2956cdf380a0255774954a981720b358152735ac5b05d0d7176ae5146ed094acf9ea2214cabe36020820152620000d290601c90600262000716565b50348015620000e057600080fd5b506040516200382e3803806200382e83398101604081905262000103916200079b565b601c8054806020026020016040519081016040528092919081815260200182805480156200015b57602002820191906000526020600020905b81546001600160a01b031681526001909101906020018083116200013c575b5050505050601b805480602002602001604051908101604052809291908181526020018280548015620001ae57602002820191906000526020600020905b81548152602001906001019080831162000199575b505050505060405180604001604052806006815260200165534b454c454560d01b81525060405180604001604052806006815260200165736b656c656560d01b81525081600290805190602001906200020992919062000644565b5080516200021f90600390602084019062000644565b5050600160005550620002323362000383565b60016009558051825114620002a95760405162461bcd60e51b815260206004820152603260248201527f5061796d656e7453706c69747465723a2070617965657320616e6420736861726044820152710cae640d8cadccee8d040dad2e6dac2e8c6d60731b60648201526084015b60405180910390fd5b6000825111620002fc5760405162461bcd60e51b815260206004820152601a60248201527f5061796d656e7453706c69747465723a206e6f207061796565730000000000006044820152606401620002a0565b60005b825181101562000368576200035383828151811062000322576200032262000877565b60200260200101518383815181106200033f576200033f62000877565b6020026020010151620003d560201b60201c565b806200035f81620008a3565b915050620002ff565b5050506200037c81620005c360201b60201c565b5062000919565b600880546001600160a01b038381166001600160a01b0319831681179093556040519116919082907f8be0079c531659141344cd1fd0a4f28419497f9722a3daafe3b4186f6b6457e090600090a35050565b6001600160a01b038216620004425760405162461bcd60e51b815260206004820152602c60248201527f5061796d656e7453706c69747465723a206163636f756e74206973207468652060448201526b7a65726f206164647265737360a01b6064820152608401620002a0565b60008111620004945760405162461bcd60e51b815260206004820152601d60248201527f5061796d656e7453706c69747465723a207368617265732061726520300000006044820152606401620002a0565b6001600160a01b0382166000908152600c602052604090205415620005105760405162461bcd60e51b815260206004820152602b60248201527f5061796d656e7453706c69747465723a206163636f756e7420616c726561647960448201526a206861732073686172657360a81b6064820152608401620002a0565b600e8054600181019091557fbb7b4a454dc3493923482f07822329ed19e8244eff582cc204f8554c3620c3fd0180546001600160a01b0319166001600160a01b0384169081179091556000908152600c60205260409020819055600a546200057a908290620008c1565b600a55604080516001600160a01b0384168152602081018390527f40c340f65e17194d14ddddb073d3c9f888e3cb52b5aae0c6c7706b4fbc905fac910160405180910390a15050565b620005cd620005e6565b8051620005e290601190602084019062000644565b5050565b6008546001600160a01b03163314620006425760405162461bcd60e51b815260206004820181905260248201527f4f776e61626c653a2063616c6c6572206973206e6f7420746865206f776e65726044820152606401620002a0565b565b8280546200065290620008dc565b90600052602060002090601f016020900481019282620006765760008555620006c1565b82601f106200069157805160ff1916838001178555620006c1565b82800160010185558215620006c1579182015b82811115620006c1578251825591602001919060010190620006a4565b50620006cf9291506200076e565b5090565b828054828255906000526020600020908101928215620006c1579160200282015b82811115620006c1578251829060ff16905591602001919060010190620006f4565b828054828255906000526020600020908101928215620006c1579160200282015b82811115620006c157825182546001600160a01b0319166001600160a01b0390911617825560209092019160019091019062000737565b5b80821115620006cf57600081556001016200076f565b634e487b7160e01b600052604160045260246000fd5b60006020808385031215620007af57600080fd5b82516001600160401b0380821115620007c757600080fd5b818501915085601f830112620007dc57600080fd5b815181811115620007f157620007f162000785565b604051601f8201601f19908116603f011681019083821181831017156200081c576200081c62000785565b8160405282815288868487010111156200083557600080fd5b600093505b828410156200085957848401860151818501870152928501926200083a565b828411156200086b5760008684830101525b98975050505050505050565b634e487b7160e01b600052603260045260246000fd5b634e487b7160e01b600052601160045260246000fd5b6000600019821415620008ba57620008ba6200088d565b5060010190565b60008219821115620008d757620008d76200088d565b500190565b600181811c90821680620008f157607f821691505b602082108114156200091357634e487b7160e01b600052602260045260246000fd5b50919050565b612f0580620009296000396000f3fe6080604052600436106103855760003560e01c806383a076be116101d1578063c668286211610102578063dc33e681116100a0578063f05398021161006f578063f053980214610a82578063f2c4ce1e14610aa2578063f2fde38b14610ac2578063f3257cdd14610ae257600080fd5b8063dc33e681146109e4578063e268e4d314610a04578063e33b7de314610a24578063e985e9c514610a3957600080fd5b8063d5abeb01116100dc578063d5abeb0114610962578063d70a28d114610978578063d79779b21461098e578063da3ef23f146109c457600080fd5b8063c6682862146108f7578063c87b56dd1461090c578063ce7c2ac21461092c57600080fd5b8063a3f8eace1161016f578063b3ab66b011610149578063b3ab66b01461089b578063b88d4fde146108ae578063bd7a1998146108c1578063c45ac050146108d757600080fd5b8063a3f8eace14610845578063ac81308814610865578063aeeae3a61461088557600080fd5b8063940cd05b116101ab578063940cd05b146107ba57806395d89b41146107da5780639852595c146107ef578063a22cb4651461082557600080fd5b806383a076be1461075c5780638b83209b1461077c5780638da5cb5b1461079c57600080fd5b8063406072a9116102b657806361efde221161025457806370a082311161022357806370a08231146106e7578063715018a6146107075780637cb647591461071c5780637f9fa4111461073c57600080fd5b806361efde221461067f5780636352211e146106925780636a972e1a146106b25780636c0360eb146106d257600080fd5b806348b750441161029057806348b7504414610606578063518302271461062657806355f804b3146106455780635c975abb1461066557600080fd5b8063406072a91461058d57806342842e0e146105d357806344a0d68a146105e657600080fd5b8063149835a01161032357806323b872dd116102fd57806323b872dd1461052e5780632eb4a7ab1461054157806333bc1c5c146105575780633a98ef391461057857600080fd5b8063149835a0146104d057806318160ddd146104f0578063191655871461050e57600080fd5b8063081812fc1161035f578063081812fc1461044c578063081c8c4414610484578063095ea7b31461049957806313faede6146104ac57600080fd5b806301ffc9a7146103d357806302329a291461040857806306fdde031461042a57600080fd5b366103ce577f6ef95f06320e7a25a04a175ca677b7052bdd97131872c2192525a629f51be77033604080516001600160a01b0390921682523460208301520160405180910390a1005b600080fd5b3480156103df57600080fd5b506103f36103ee3660046127da565b610b02565b60405190151581526020015b60405180910390f35b34801561041457600080fd5b50610428610423366004612805565b610b54565b005b34801561043657600080fd5b5061043f610b6f565b6040516103ff919061287a565b34801561045857600080fd5b5061046c61046736600461288d565b610c01565b6040516001600160a01b0390911681526020016103ff565b34801561049057600080fd5b5061043f610c45565b6104286104a73660046128bb565b610cd3565b3480156104b857600080fd5b506104c260145481565b6040519081526020016103ff565b3480156104dc57600080fd5b506104286104eb36600461288d565b610d73565b3480156104fc57600080fd5b506104c2600154600054036000190190565b34801561051a57600080fd5b506104286105293660046128e7565b610d80565b61042861053c366004612904565b610e6d565b34801561054d57600080fd5b506104c2601a5481565b34801561056357600080fd5b506019546103f3906301000000900460ff1681565b34801561058457600080fd5b50600a546104c2565b34801561059957600080fd5b506104c26105a8366004612945565b6001600160a01b03918216600090815260106020908152604080832093909416825291909152205490565b6104286105e1366004612904565b610ffe565b3480156105f257600080fd5b5061042861060136600461288d565b61101e565b34801561061257600080fd5b50610428610621366004612945565b61102b565b34801561063257600080fd5b506019546103f390610100900460ff1681565b34801561065157600080fd5b50610428610660366004612a0a565b611139565b34801561067157600080fd5b506019546103f39060ff1681565b61042861068d366004612a53565b611158565b34801561069e57600080fd5b5061046c6106ad36600461288d565b611487565b3480156106be57600080fd5b506104286106cd36600461288d565b611492565b3480156106de57600080fd5b5061043f61149f565b3480156106f357600080fd5b506104c26107023660046128e7565b6114ac565b34801561071357600080fd5b506104286114fb565b34801561072857600080fd5b5061042861073736600461288d565b61150f565b34801561074857600080fd5b506019546103f39062010000900460ff1681565b34801561076857600080fd5b50610428610777366004612ad2565b61151c565b34801561078857600080fd5b5061046c61079736600461288d565b6115cb565b3480156107a857600080fd5b506008546001600160a01b031661046c565b3480156107c657600080fd5b506104286107d5366004612805565b6115fb565b3480156107e657600080fd5b5061043f61161d565b3480156107fb57600080fd5b506104c261080a3660046128e7565b6001600160a01b03166000908152600d602052604090205490565b34801561083157600080fd5b50610428610840366004612af7565b61162c565b34801561085157600080fd5b506104c26108603660046128e7565b611698565b34801561087157600080fd5b50610428610880366004612805565b6116e0565b34801561089157600080fd5b506104c260185481565b6104286108a936600461288d565b611704565b6104286108bc366004612b25565b611950565b3480156108cd57600080fd5b506104c260175481565b3480156108e357600080fd5b506104c26108f2366004612945565b61199a565b34801561090357600080fd5b5061043f611a74565b34801561091857600080fd5b5061043f61092736600461288d565b611a81565b34801561093857600080fd5b506104c26109473660046128e7565b6001600160a01b03166000908152600c602052604090205490565b34801561096e57600080fd5b506104c260165481565b34801561098457600080fd5b506104c260155481565b34801561099a57600080fd5b506104c26109a93660046128e7565b6001600160a01b03166000908152600f602052604090205490565b3480156109d057600080fd5b506104286109df366004612a0a565b611bf0565b3480156109f057600080fd5b506104c26109ff3660046128e7565b611c0b565b348015610a1057600080fd5b50610428610a1f36600461288d565b611c36565b348015610a3057600080fd5b50600b546104c2565b348015610a4557600080fd5b506103f3610a54366004612945565b6001600160a01b03918216600090815260076020908152604080832093909416825291909152205460ff1690565b348015610a8e57600080fd5b50610428610a9d36600461288d565b611c43565b348015610aae57600080fd5b50610428610abd366004612a0a565b611c50565b348015610ace57600080fd5b50610428610add3660046128e7565b611c6b565b348015610aee57600080fd5b50610428610afd366004612805565b611ce1565b60006301ffc9a760e01b6001600160e01b031983161480610b3357506380ac58cd60e01b6001600160e01b03198316145b80610b4e5750635b5e139f60e01b6001600160e01b03198316145b92915050565b610b5c611d07565b6019805460ff1916911515919091179055565b606060028054610b7e90612ba5565b80601f0160208091040260200160405190810160405280929190818152602001828054610baa90612ba5565b8015610bf75780601f10610bcc57610100808354040283529160200191610bf7565b820191906000526020600020905b815481529060010190602001808311610bda57829003601f168201915b5050505050905090565b6000610c0c82611d61565b610c29576040516333d1c03960e21b815260040160405180910390fd5b506000908152600660205260409020546001600160a01b031690565b60138054610c5290612ba5565b80601f0160208091040260200160405190810160405280929190818152602001828054610c7e90612ba5565b8015610ccb5780601f10610ca057610100808354040283529160200191610ccb565b820191906000526020600020905b815481529060010190602001808311610cae57829003601f168201915b505050505081565b6000610cde82611487565b9050336001600160a01b03821614610d1757610cfa8133610a54565b610d17576040516367d9dca160e11b815260040160405180910390fd5b60008281526006602052604080822080546001600160a01b0319166001600160a01b0387811691821790925591518593918516917f8c5be1e5ebec7d5bd14f71427d1e84f3dd0314c0f7b2291e5b200ac8c7c3b92591a4505050565b610d7b611d07565b601655565b6001600160a01b0381166000908152600c6020526040902054610dbe5760405162461bcd60e51b8152600401610db590612be0565b60405180910390fd5b6000610dc982611698565b905080610de85760405162461bcd60e51b8152600401610db590612c26565b80600b6000828254610dfa9190612c87565b90915550506001600160a01b0382166000908152600d60205260409020805482019055610e278282611d96565b604080516001600160a01b0384168152602081018390527fdf20fd1e76bc69d672e4814fafb2c449bba3a5369d8359adf9e05e6fde87b056910160405180910390a15050565b6000610e7882611eaf565b9050836001600160a01b0316816001600160a01b031614610eab5760405162a1148160e81b815260040160405180910390fd5b60008281526006602052604090208054338082146001600160a01b03881690911417610ef857610edb8633610a54565b610ef857604051632ce44b5f60e11b815260040160405180910390fd5b6001600160a01b038516610f1f57604051633a954ecd60e21b815260040160405180910390fd5b8015610f2a57600082555b6001600160a01b038681166000908152600560205260408082208054600019019055918716808252919020805460010190554260a01b17600160e11b17600085815260046020526040902055600160e11b8316610fb55760018401600081815260046020526040902054610fb3576000548114610fb35760008181526004602052604090208490555b505b83856001600160a01b0316876001600160a01b03167fddf252ad1be2c89b69c2b068fc378daa952ba7f163c4a11628f55a4df523b3ef60405160405180910390a4505050505050565b61101983838360405180602001604052806000815250611950565b505050565b611026611d07565b601455565b6001600160a01b0381166000908152600c60205260409020546110605760405162461bcd60e51b8152600401610db590612be0565b600061106c838361199a565b90508061108b5760405162461bcd60e51b8152600401610db590612c26565b6001600160a01b0383166000908152600f6020526040812080548392906110b3908490612c87565b90915550506001600160a01b0380841660009081526010602090815260408083209386168352929052208054820190556110ee838383611f18565b604080516001600160a01b038481168252602082018490528516917f3be5b7a71e84ed12875d241991c70855ac5817d847039e17a9d895c1ceb0f18a910160405180910390a2505050565b611141611d07565b805161115490601190602084019061272b565b5050565b611160611f6a565b60195460ff16156111ad5760405162461bcd60e51b81526020600482015260176024820152761bdbdc1cc818dbdb9d1c9858dd081a5cc81c185d5cd959604a1b6044820152606401610db5565b60195462010000900460ff166112055760405162461bcd60e51b815260206004820152601a60248201527f776c206d696e74204861736e27742073746172746564207965740000000000006044820152606401610db5565b61127a82828080602002602001604051908101604052809392919081815260200183836020028082843760009201919091525050601a546040516bffffffffffffffffffffffff193360601b166020820152909250603401905060405160208183030381529060405280519060200120611fc4565b6112c65760405162461bcd60e51b815260206004820152601d60248201527f20596f7520617265206e6f7420696e207468652077686974656c6973740000006044820152606401610db5565b60006112d9600154600054036000190190565b9050601854846113126112e93390565b6001600160a01b03166000908152600560205260409081902054901c67ffffffffffffffff1690565b61131c9190612c87565b111561136a5760405162461bcd60e51b815260206004820152601b60248201527f4d6178204e4654205065722057616c6c657420657863656564656400000000006044820152606401610db5565b6000841161138a5760405162461bcd60e51b8152600401610db590612c9f565b6016546113978583612c87565b11156113d25760405162461bcd60e51b815260206004820152600a60248201526915d94814dbdb191bdd5d60b21b6044820152606401610db5565b6018548411156114245760405162461bcd60e51b815260206004820152601860248201527f6d6178206d696e742070657220547820657863656564656400000000000000006044820152606401610db5565b836015546114329190612cd6565b3410156114725760405162461bcd60e51b815260206004820152600e60248201526d0dcdee840cadcdeeaced040cae8d60931b6044820152606401610db5565b61147c3385611fda565b506110196001600955565b6000610b4e82611eaf565b61149a611d07565b601555565b60118054610c5290612ba5565b60006001600160a01b0382166114d5576040516323d3ad8160e21b815260040160405180910390fd5b506001600160a01b031660009081526005602052604090205467ffffffffffffffff1690565b611503611d07565b61150d6000611ff4565b565b611517611d07565b601a55565b611524611d07565b61152c611f6a565b6000821161154c5760405162461bcd60e51b8152600401610db590612c9f565b600061155f600154600054036000190190565b60165490915061156f8483612c87565b11156115b65760405162461bcd60e51b81526020600482015260166024820152751b585e08139195081b1a5b5a5d08195e18d95959195960521b6044820152606401610db5565b6115c08284611fda565b506111546001600955565b6000600e82815481106115e0576115e0612cf5565b6000918252602090912001546001600160a01b031692915050565b611603611d07565b601980549115156101000261ff0019909216919091179055565b606060038054610b7e90612ba5565b3360008181526007602090815260408083206001600160a01b03871680855290835292819020805460ff191686151590811790915590519081529192917f17307eab39ab6107e8899845ad3d59bd9653f200f220920489ca2b5937696c31910160405180910390a35050565b6000806116a4600b5490565b6116ae9047612c87565b90506116d983826116d4866001600160a01b03166000908152600d602052604090205490565b612046565b9392505050565b6116e8611d07565b60198054911515620100000262ff000019909216919091179055565b61170c611f6a565b60195460ff16156117595760405162461bcd60e51b81526020600482015260176024820152761bdbdc1cc818dbdb9d1c9858dd081a5cc81c185d5cd959604a1b6044820152606401610db5565b6019546301000000900460ff166117b25760405162461bcd60e51b815260206004820152601760248201527f53616c65204861736e27742073746172746564207965740000000000000000006044820152606401610db5565b60006117c5600154600054036000190190565b9050600082116117e75760405162461bcd60e51b8152600401610db590612c9f565b6017548211156118395760405162461bcd60e51b815260206004820152601f60248201527f6d6178206d696e7420616d6f756e7420706572207478206578636565646564006044820152606401610db5565b6016546118468383612c87565b11156118815760405162461bcd60e51b815260206004820152600a60248201526915d94814dbdb191bdd5d60b21b6044820152606401610db5565b6017548261188e336112e9565b6118989190612c87565b11156118e65760405162461bcd60e51b815260206004820152601c60248201527f204d6178204e4654205065722057616c6c6574206578636565646564000000006044820152606401610db5565b816014546118f49190612cd6565b3410156119385760405162461bcd60e51b8152602060048201526012602482015271696e73756666696369656e742066756e647360701b6044820152606401610db5565b6119423383611fda565b5061194d6001600955565b50565b61195b848484610e6d565b6001600160a01b0383163b156119945761197784848484612084565b611994576040516368d2bf6b60e11b815260040160405180910390fd5b50505050565b6001600160a01b0382166000908152600f602052604081205481906040516370a0823160e01b81523060048201526001600160a01b038616906370a082319060240160206040518083038186803b1580156119f457600080fd5b505afa158015611a08573d6000803e3d6000fd5b505050506040513d601f19601f82011682018060405250810190611a2c9190612d0b565b611a369190612c87565b6001600160a01b03808616600090815260106020908152604080832093881683529290522054909150611a6c9084908390612046565b949350505050565b60128054610c5290612ba5565b6060611a8c82611d61565b611af15760405162461bcd60e51b815260206004820152603060248201527f455243373231414d657461646174613a2055524920717565727920666f72206e60448201526f37b732bc34b9ba32b73a103a37b5b2b760811b6064820152608401610db5565b601954610100900460ff16611b925760138054611b0d90612ba5565b80601f0160208091040260200160405190810160405280929190818152602001828054611b3990612ba5565b8015611b865780601f10611b5b57610100808354040283529160200191611b86565b820191906000526020600020905b815481529060010190602001808311611b6957829003601f168201915b50505050509050919050565b6000611b9c61217b565b90506000815111611bbc57604051806020016040528060008152506116d9565b80611bc68461218a565b6012604051602001611bda93929190612d24565b6040516020818303038152906040529392505050565b611bf8611d07565b805161115490601290602084019061272b565b6001600160a01b0381166000908152600560205260408082205467ffffffffffffffff911c16610b4e565b611c3e611d07565b601755565b611c4b611d07565b601855565b611c58611d07565b805161115490601390602084019061272b565b611c73611d07565b6001600160a01b038116611cd85760405162461bcd60e51b815260206004820152602660248201527f4f776e61626c653a206e6577206f776e657220697320746865207a65726f206160448201526564647265737360d01b6064820152608401610db5565b61194d81611ff4565b611ce9611d07565b6019805491151563010000000263ff00000019909216919091179055565b6008546001600160a01b0316331461150d5760405162461bcd60e51b815260206004820181905260248201527f4f776e61626c653a2063616c6c6572206973206e6f7420746865206f776e65726044820152606401610db5565b600081600111158015611d75575060005482105b8015610b4e575050600090815260046020526040902054600160e01b161590565b80471015611de65760405162461bcd60e51b815260206004820152601d60248201527f416464726573733a20696e73756666696369656e742062616c616e63650000006044820152606401610db5565b6000826001600160a01b03168260405160006040518083038185875af1925050503d8060008114611e33576040519150601f19603f3d011682016040523d82523d6000602084013e611e38565b606091505b50509050806110195760405162461bcd60e51b815260206004820152603a60248201527f416464726573733a20756e61626c6520746f2073656e642076616c75652c207260448201527f6563697069656e74206d617920686176652072657665727465640000000000006064820152608401610db5565b60008180600111611eff57600054811015611eff57600081815260046020526040902054600160e01b8116611efd575b806116d9575060001901600081815260046020526040902054611edf565b505b604051636f96cda160e11b815260040160405180910390fd5b604080516001600160a01b038416602482015260448082018490528251808303909101815260649091019091526020810180516001600160e01b031663a9059cbb60e01b179052611019908490612227565b60026009541415611fbd5760405162461bcd60e51b815260206004820152601f60248201527f5265656e7472616e637947756172643a207265656e7472616e742063616c6c006044820152606401610db5565b6002600955565b600082611fd185846122f9565b14949350505050565b61115482826040518060200160405280600081525061233e565b600880546001600160a01b038381166001600160a01b0319831681179093556040519116919082907f8be0079c531659141344cd1fd0a4f28419497f9722a3daafe3b4186f6b6457e090600090a35050565b600a546001600160a01b0384166000908152600c6020526040812054909183916120709086612cd6565b61207a9190612de8565b611a6c9190612e0a565b604051630a85bd0160e11b81526000906001600160a01b0385169063150b7a02906120b9903390899088908890600401612e21565b602060405180830381600087803b1580156120d357600080fd5b505af1925050508015612103575060408051601f3d908101601f1916820190925261210091810190612e5e565b60015b61215e573d808015612131576040519150601f19603f3d011682016040523d82523d6000602084013e612136565b606091505b508051612156576040516368d2bf6b60e11b815260040160405180910390fd5b805181602001fd5b6001600160e01b031916630a85bd0160e11b149050949350505050565b606060118054610b7e90612ba5565b60606000612197836123ab565b600101905060008167ffffffffffffffff8111156121b7576121b761297e565b6040519080825280601f01601f1916602001820160405280156121e1576020820181803683370190505b5090508181016020015b600019016f181899199a1a9b1b9c1cb0b131b232b360811b600a86061a8153600a850494508461221a5761221f565b6121eb565b509392505050565b600061227c826040518060400160405280602081526020017f5361666545524332303a206c6f772d6c6576656c2063616c6c206661696c6564815250856001600160a01b03166124839092919063ffffffff16565b805190915015611019578080602001905181019061229a9190612e7b565b6110195760405162461bcd60e51b815260206004820152602a60248201527f5361666545524332303a204552433230206f7065726174696f6e20646964206e6044820152691bdd081cdd58d8d9595960b21b6064820152608401610db5565b600081815b845181101561221f5761232a8286838151811061231d5761231d612cf5565b6020026020010151612492565b91508061233681612e98565b9150506122fe565b61234883836124be565b6001600160a01b0383163b15611019576000548281035b6123726000868380600101945086612084565b61238f576040516368d2bf6b60e11b815260040160405180910390fd5b81811061235f5781600054146123a457600080fd5b5050505050565b60008072184f03e93ff9f4daa797ed6e38ed64bf6a1f0160401b83106123ea5772184f03e93ff9f4daa797ed6e38ed64bf6a1f0160401b830492506040015b6d04ee2d6d415b85acef81000000008310612416576d04ee2d6d415b85acef8100000000830492506020015b662386f26fc10000831061243457662386f26fc10000830492506010015b6305f5e100831061244c576305f5e100830492506008015b612710831061246057612710830492506004015b60648310612472576064830492506002015b600a8310610b4e5760010192915050565b6060611a6c84846000856125b5565b60008183106124ae5760008281526020849052604090206116d9565b5060009182526020526040902090565b600054816124df5760405163b562e8dd60e01b815260040160405180910390fd5b6001600160a01b03831660008181526005602090815260408083208054680100000000000000018802019055848352600490915281206001851460e11b4260a01b178317905582840190839083907fddf252ad1be2c89b69c2b068fc378daa952ba7f163c4a11628f55a4df523b3ef8180a4600183015b81811461258e57808360007fddf252ad1be2c89b69c2b068fc378daa952ba7f163c4a11628f55a4df523b3ef600080a4600101612556565b50816125ac57604051622e076360e81b815260040160405180910390fd5b60005550505050565b6060824710156126165760405162461bcd60e51b815260206004820152602660248201527f416464726573733a20696e73756666696369656e742062616c616e636520666f6044820152651c8818d85b1b60d21b6064820152608401610db5565b600080866001600160a01b031685876040516126329190612eb3565b60006040518083038185875af1925050503d806000811461266f576040519150601f19603f3d011682016040523d82523d6000602084013e612674565b606091505b509150915061268587838387612690565b979650505050505050565b606083156126fc5782516126f5576001600160a01b0385163b6126f55760405162461bcd60e51b815260206004820152601d60248201527f416464726573733a2063616c6c20746f206e6f6e2d636f6e74726163740000006044820152606401610db5565b5081611a6c565b611a6c83838151156127115781518083602001fd5b8060405162461bcd60e51b8152600401610db5919061287a565b82805461273790612ba5565b90600052602060002090601f016020900481019282612759576000855561279f565b82601f1061277257805160ff191683800117855561279f565b8280016001018555821561279f579182015b8281111561279f578251825591602001919060010190612784565b506127ab9291506127af565b5090565b5b808211156127ab57600081556001016127b0565b6001600160e01b03198116811461194d57600080fd5b6000602082840312156127ec57600080fd5b81356116d9816127c4565b801515811461194d57600080fd5b60006020828403121561281757600080fd5b81356116d9816127f7565b60005b8381101561283d578181015183820152602001612825565b838111156119945750506000910152565b60008151808452612866816020860160208601612822565b601f01601f19169290920160200192915050565b6020815260006116d9602083018461284e565b60006020828403121561289f57600080fd5b5035919050565b6001600160a01b038116811461194d57600080fd5b600080604083850312156128ce57600080fd5b82356128d9816128a6565b946020939093013593505050565b6000602082840312156128f957600080fd5b81356116d9816128a6565b60008060006060848603121561291957600080fd5b8335612924816128a6565b92506020840135612934816128a6565b929592945050506040919091013590565b6000806040838503121561295857600080fd5b8235612963816128a6565b91506020830135612973816128a6565b809150509250929050565b634e487b7160e01b600052604160045260246000fd5b600067ffffffffffffffff808411156129af576129af61297e565b604051601f8501601f19908116603f011681019082821181831017156129d7576129d761297e565b816040528093508581528686860111156129f057600080fd5b858560208301376000602087830101525050509392505050565b600060208284031215612a1c57600080fd5b813567ffffffffffffffff811115612a3357600080fd5b8201601f81018413612a4457600080fd5b611a6c84823560208401612994565b600080600060408486031215612a6857600080fd5b83359250602084013567ffffffffffffffff80821115612a8757600080fd5b818601915086601f830112612a9b57600080fd5b813581811115612aaa57600080fd5b8760208260051b8501011115612abf57600080fd5b6020830194508093505050509250925092565b60008060408385031215612ae557600080fd5b823591506020830135612973816128a6565b60008060408385031215612b0a57600080fd5b8235612b15816128a6565b91506020830135612973816127f7565b60008060008060808587031215612b3b57600080fd5b8435612b46816128a6565b93506020850135612b56816128a6565b925060408501359150606085013567ffffffffffffffff811115612b7957600080fd5b8501601f81018713612b8a57600080fd5b612b9987823560208401612994565b91505092959194509250565b600181811c90821680612bb957607f821691505b60208210811415612bda57634e487b7160e01b600052602260045260246000fd5b50919050565b60208082526026908201527f5061796d656e7453706c69747465723a206163636f756e7420686173206e6f2060408201526573686172657360d01b606082015260800190565b6020808252602b908201527f5061796d656e7453706c69747465723a206163636f756e74206973206e6f742060408201526a191d59481c185e5b595b9d60aa1b606082015260800190565b634e487b7160e01b600052601160045260246000fd5b60008219821115612c9a57612c9a612c71565b500190565b6020808252601b908201527f6e65656420746f206d696e74206174206c656173742031204e46540000000000604082015260600190565b6000816000190483118215151615612cf057612cf0612c71565b500290565b634e487b7160e01b600052603260045260246000fd5b600060208284031215612d1d57600080fd5b5051919050565b600084516020612d378285838a01612822565b855191840191612d4a8184848a01612822565b8554920191600090600181811c9080831680612d6757607f831692505b858310811415612d8557634e487b7160e01b85526022600452602485fd5b808015612d995760018114612daa57612dd7565b60ff19851688528388019550612dd7565b60008b81526020902060005b85811015612dcf5781548a820152908401908801612db6565b505083880195505b50939b9a5050505050505050505050565b600082612e0557634e487b7160e01b600052601260045260246000fd5b500490565b600082821015612e1c57612e1c612c71565b500390565b6001600160a01b0385811682528416602082015260408101839052608060608201819052600090612e549083018461284e565b9695505050505050565b600060208284031215612e7057600080fd5b81516116d9816127c4565b600060208284031215612e8d57600080fd5b81516116d9816127f7565b6000600019821415612eac57612eac612c71565b5060010190565b60008251612ec5818460208701612822565b919091019291505056fea2646970667358221220b9b1205434aee788cc8932ad474fffbe4c25b1593e8642b16f59e0454d69caac64736f6c63430008090033",
  "linkReferences": {},
  "deployedLinkReferences": {}
}