{
  "_format": "hh-sol-artifact-1",
  "contractName": "Skelee",
  "sourceName": "contracts/Skelee.sol",
  "abi": [
    {
      "inputs": [
        {
          "internalType": "string",
          "name": "_initBaseURI",
          "type": "string"
        }
      ],
      "stateMutability": "nonpayable",
      "type": "constructor"
    },
    {
      "inputs": [],
      "name": "ApprovalCallerNotOwnerNorApproved",
      "type": "error"
    },
    {
      "inputs": [],
      "name": "ApprovalQueryForNonexistentToken",
      "type": "error"
    },
    {
      "inputs": [],
      "name": "BalanceQueryForZeroAddress",
      "type": "error"
    },
    {
      "inputs": [],
      "name": "MintERC2309QuantityExceedsLimit",
      "type": "error"
    },
    {
      "inputs": [],
      "name": "MintToZeroAddress",
      "type": "error"
    },
    {
      "inputs": [],
      "name": "MintZeroQuantity",
      "type": "error"
    },
    {
      "inputs": [
        {
          "internalType": "address",
          "name": "operator",
          "type": "address"
        }
      ],
      "name": "OperatorNotAllowed",
      "type": "error"
    },
    {
      "inputs": [],
      "name": "OwnerQueryForNonexistentToken",
      "type": "error"
    },
    {
      "inputs": [],
      "name": "OwnershipNotInitializedForExtraData",
      "type": "error"
    },
    {
      "inputs": [],
      "name": "TransferCallerNotOwnerNorApproved",
      "type": "error"
    },
    {
      "inputs": [],
      "name": "TransferFromIncorrectOwner",
      "type": "error"
    },
    {
      "inputs": [],
      "name": "TransferToNonERC721ReceiverImplementer",
      "type": "error"
    },
    {
      "inputs": [],
      "name": "TransferToZeroAddress",
      "type": "error"
    },
    {
      "inputs": [],
      "name": "URIQueryForNonexistentToken",
      "type": "error"
    },
    {
      "anonymous": false,
      "inputs": [
        {
          "indexed": true,
          "internalType": "address",
          "name": "owner",
          "type": "address"
        },
        {
          "indexed": true,
          "internalType": "address",
          "name": "approved",
          "type": "address"
        },
        {
          "indexed": true,
          "internalType": "uint256",
          "name": "tokenId",
          "type": "uint256"
        }
      ],
      "name": "Approval",
      "type": "event"
    },
    {
      "anonymous": false,
      "inputs": [
        {
          "indexed": true,
          "internalType": "address",
          "name": "owner",
          "type": "address"
        },
        {
          "indexed": true,
          "internalType": "address",
          "name": "operator",
          "type": "address"
        },
        {
          "indexed": false,
          "internalType": "bool",
          "name": "approved",
          "type": "bool"
        }
      ],
      "name": "ApprovalForAll",
      "type": "event"
    },
    {
      "anonymous": false,
      "inputs": [
        {
          "indexed": true,
          "internalType": "uint256",
          "name": "fromTokenId",
          "type": "uint256"
        },
        {
          "indexed": false,
          "internalType": "uint256",
          "name": "toTokenId",
          "type": "uint256"
        },
        {
          "indexed": true,
          "internalType": "address",
          "name": "from",
          "type": "address"
        },
        {
          "indexed": true,
          "internalType": "address",
          "name": "to",
          "type": "address"
        }
      ],
      "name": "ConsecutiveTransfer",
      "type": "event"
    },
    {
      "anonymous": false,
      "inputs": [
        {
          "indexed": true,
          "internalType": "address",
          "name": "previousOwner",
          "type": "address"
        },
        {
          "indexed": true,
          "internalType": "address",
          "name": "newOwner",
          "type": "address"
        }
      ],
      "name": "OwnershipTransferred",
      "type": "event"
    },
    {
      "anonymous": false,
      "inputs": [
        {
          "indexed": true,
          "internalType": "address",
          "name": "from",
          "type": "address"
        },
        {
          "indexed": true,
          "internalType": "address",
          "name": "to",
          "type": "address"
        },
        {
          "indexed": true,
          "internalType": "uint256",
          "name": "tokenId",
          "type": "uint256"
        }
      ],
      "name": "Transfer",
      "type": "event"
    },
    {
      "inputs": [],
      "name": "EarlyAccessCost",
      "outputs": [
        {
          "internalType": "uint256",
          "name": "",
          "type": "uint256"
        }
      ],
      "stateMutability": "view",
      "type": "function"
    },
    {
      "inputs": [
        {
          "internalType": "uint256",
          "name": "tokens",
          "type": "uint256"
        }
      ],
      "name": "EarlyAccessMint",
      "outputs": [],
      "stateMutability": "payable",
      "type": "function"
    },
    {
      "inputs": [],
      "name": "EarlyAccessMint_Live",
      "outputs": [
        {
          "internalType": "bool",
          "name": "",
          "type": "bool"
        }
      ],
      "stateMutability": "view",
      "type": "function"
    },
    {
      "inputs": [],
      "name": "EarlyAccess_Supply",
      "outputs": [
        {
          "internalType": "uint256",
          "name": "",
          "type": "uint256"
        }
      ],
      "stateMutability": "view",
      "type": "function"
    },
    {
      "inputs": [],
      "name": "MaxperWallet_EarlyAccess",
      "outputs": [
        {
          "internalType": "uint256",
          "name": "",
          "type": "uint256"
        }
      ],
      "stateMutability": "view",
      "type": "function"
    },
    {
      "inputs": [],
      "name": "MaxperWallet_PublicMint",
      "outputs": [
        {
          "internalType": "uint256",
          "name": "",
          "type": "uint256"
        }
      ],
      "stateMutability": "view",
      "type": "function"
    },
    {
      "inputs": [],
      "name": "MaxperWallet_SkeleeFriends",
      "outputs": [
        {
          "internalType": "uint256",
          "name": "",
          "type": "uint256"
        }
      ],
      "stateMutability": "view",
      "type": "function"
    },
    {
      "inputs": [],
      "name": "OPERATOR_FILTER_REGISTRY",
      "outputs": [
        {
          "internalType": "contract IOperatorFilterRegistry",
          "name": "",
          "type": "address"
        }
      ],
      "stateMutability": "view",
      "type": "function"
    },
    {
      "inputs": [
        {
          "internalType": "uint256",
          "name": "tokens",
          "type": "uint256"
        }
      ],
      "name": "PublicMint",
      "outputs": [],
      "stateMutability": "payable",
      "type": "function"
    },
    {
      "inputs": [],
      "name": "PublicMintCost",
      "outputs": [
        {
          "internalType": "uint256",
          "name": "",
          "type": "uint256"
        }
      ],
      "stateMutability": "view",
      "type": "function"
    },
    {
      "inputs": [],
      "name": "PublicMint_Live",
      "outputs": [
        {
          "internalType": "bool",
          "name": "",
          "type": "bool"
        }
      ],
      "stateMutability": "view",
      "type": "function"
    },
    {
      "inputs": [
        {
          "internalType": "uint256",
          "name": "tokens",
          "type": "uint256"
        },
        {
          "internalType": "bytes32[]",
          "name": "merkleProof",
          "type": "bytes32[]"
        }
      ],
      "name": "SkeleeFriendsMint",
      "outputs": [],
      "stateMutability": "nonpayable",
      "type": "function"
    },
    {
      "inputs": [],
      "name": "SkeleeFriendsMint_Live",
      "outputs": [
        {
          "internalType": "bool",
          "name": "",
          "type": "bool"
        }
      ],
      "stateMutability": "view",
      "type": "function"
    },
    {
      "inputs": [],
      "name": "SkeleeFriends_Supply",
      "outputs": [
        {
          "internalType": "uint256",
          "name": "",
          "type": "uint256"
        }
      ],
      "stateMutability": "view",
      "type": "function"
    },
    {
      "inputs": [
        {
          "internalType": "address",
          "name": "operator",
          "type": "address"
        },
        {
          "internalType": "uint256",
          "name": "tokenId",
          "type": "uint256"
        }
      ],
      "name": "approve",
      "outputs": [],
      "stateMutability": "payable",
      "type": "function"
    },
    {
      "inputs": [
        {
          "internalType": "address",
          "name": "owner",
          "type": "address"
        }
      ],
      "name": "balanceOf",
      "outputs": [
        {
          "internalType": "uint256",
          "name": "",
          "type": "uint256"
        }
      ],
      "stateMutability": "view",
      "type": "function"
    },
    {
      "inputs": [],
      "name": "baseExtension",
      "outputs": [
        {
          "internalType": "string",
          "name": "",
          "type": "string"
        }
      ],
      "stateMutability": "view",
      "type": "function"
    },
    {
      "inputs": [],
      "name": "baseURI",
      "outputs": [
        {
          "internalType": "string",
          "name": "",
          "type": "string"
        }
      ],
      "stateMutability": "view",
      "type": "function"
    },
    {
      "inputs": [
        {
          "internalType": "uint256",
          "name": "tokenId",
          "type": "uint256"
        }
      ],
      "name": "getApproved",
      "outputs": [
        {
          "internalType": "address",
          "name": "",
          "type": "address"
        }
      ],
      "stateMutability": "view",
      "type": "function"
    },
    {
      "inputs": [
        {
          "internalType": "uint256",
          "name": "_mintAmount",
          "type": "uint256"
        },
        {
          "internalType": "address",
          "name": "destination",
          "type": "address"
        }
      ],
      "name": "gift",
      "outputs": [],
      "stateMutability": "nonpayable",
      "type": "function"
    },
    {
      "inputs": [
        {
          "internalType": "address",
          "name": "owner",
          "type": "address"
        },
        {
          "internalType": "address",
          "name": "operator",
          "type": "address"
        }
      ],
      "name": "isApprovedForAll",
      "outputs": [
        {
          "internalType": "bool",
          "name": "",
          "type": "bool"
        }
      ],
      "stateMutability": "view",
      "type": "function"
    },
    {
      "inputs": [],
      "name": "maxSupply",
      "outputs": [
        {
          "internalType": "uint256",
          "name": "",
          "type": "uint256"
        }
      ],
      "stateMutability": "view",
      "type": "function"
    },
    {
      "inputs": [],
      "name": "merkleRoot",
      "outputs": [
        {
          "internalType": "bytes32",
          "name": "",
          "type": "bytes32"
        }
      ],
      "stateMutability": "view",
      "type": "function"
    },
    {
      "inputs": [],
      "name": "name",
      "outputs": [
        {
          "internalType": "string",
          "name": "",
          "type": "string"
        }
      ],
      "stateMutability": "view",
      "type": "function"
    },
    {
      "inputs": [],
      "name": "notRevealedUri",
      "outputs": [
        {
          "internalType": "string",
          "name": "",
          "type": "string"
        }
      ],
      "stateMutability": "view",
      "type": "function"
    },
    {
      "inputs": [
        {
          "internalType": "address",
          "name": "owner",
          "type": "address"
        }
      ],
      "name": "numberMinted",
      "outputs": [
        {
          "internalType": "uint256",
          "name": "",
          "type": "uint256"
        }
      ],
      "stateMutability": "view",
      "type": "function"
    },
    {
      "inputs": [],
      "name": "owner",
      "outputs": [
        {
          "internalType": "address",
          "name": "",
          "type": "address"
        }
      ],
      "stateMutability": "view",
      "type": "function"
    },
    {
      "inputs": [
        {
          "internalType": "uint256",
          "name": "tokenId",
          "type": "uint256"
        }
      ],
      "name": "ownerOf",
      "outputs": [
        {
          "internalType": "address",
          "name": "",
          "type": "address"
        }
      ],
      "stateMutability": "view",
      "type": "function"
    },
    {
      "inputs": [
        {
          "internalType": "bool",
          "name": "_state",
          "type": "bool"
        }
      ],
      "name": "pause",
      "outputs": [],
      "stateMutability": "nonpayable",
      "type": "function"
    },
    {
      "inputs": [],
      "name": "paused",
      "outputs": [
        {
          "internalType": "bool",
          "name": "",
          "type": "bool"
        }
      ],
      "stateMutability": "view",
      "type": "function"
    },
    {
      "inputs": [],
      "name": "renounceOwnership",
      "outputs": [],
      "stateMutability": "nonpayable",
      "type": "function"
    },
    {
      "inputs": [
        {
          "internalType": "bool",
          "name": "_state",
          "type": "bool"
        }
      ],
      "name": "reveal",
      "outputs": [],
      "stateMutability": "nonpayable",
      "type": "function"
    },
    {
      "inputs": [],
      "name": "revealed",
      "outputs": [
        {
          "internalType": "bool",
          "name": "",
          "type": "bool"
        }
      ],
      "stateMutability": "view",
      "type": "function"
    },
    {
      "inputs": [
        {
          "internalType": "address",
          "name": "from",
          "type": "address"
        },
        {
          "internalType": "address",
          "name": "to",
          "type": "address"
        },
        {
          "internalType": "uint256",
          "name": "tokenId",
          "type": "uint256"
        }
      ],
      "name": "safeTransferFrom",
      "outputs": [],
      "stateMutability": "payable",
      "type": "function"
    },
    {
      "inputs": [
        {
          "internalType": "address",
          "name": "from",
          "type": "address"
        },
        {
          "internalType": "address",
          "name": "to",
          "type": "address"
        },
        {
          "internalType": "uint256",
          "name": "tokenId",
          "type": "uint256"
        },
        {
          "internalType": "bytes",
          "name": "data",
          "type": "bytes"
        }
      ],
      "name": "safeTransferFrom",
      "outputs": [],
      "stateMutability": "payable",
      "type": "function"
    },
    {
      "inputs": [
        {
          "internalType": "address",
          "name": "operator",
          "type": "address"
        },
        {
          "internalType": "bool",
          "name": "approved",
          "type": "bool"
        }
      ],
      "name": "setApprovalForAll",
      "outputs": [],
      "stateMutability": "nonpayable",
      "type": "function"
    },
    {
      "inputs": [
        {
          "internalType": "string",
          "name": "_newBaseExtension",
          "type": "string"
        }
      ],
      "name": "setBaseExtension",
      "outputs": [],
      "stateMutability": "nonpayable",
      "type": "function"
    },
    {
      "inputs": [
        {
          "internalType": "string",
          "name": "_newBaseURI",
          "type": "string"
        }
      ],
      "name": "setBaseURI",
      "outputs": [],
      "stateMutability": "nonpayable",
      "type": "function"
    },
    {
      "inputs": [
        {
          "internalType": "uint256",
          "name": "_newCost",
          "type": "uint256"
        }
      ],
      "name": "setEarlyAccessCost",
      "outputs": [],
      "stateMutability": "nonpayable",
      "type": "function"
    },
    {
      "inputs": [
        {
          "internalType": "uint256",
          "name": "_newsupply",
          "type": "uint256"
        }
      ],
      "name": "setEarlyAccess_Supply",
      "outputs": [],
      "stateMutability": "nonpayable",
      "type": "function"
    },
    {
      "inputs": [
        {
          "internalType": "uint256",
          "name": "_limit",
          "type": "uint256"
        }
      ],
      "name": "setMaxperWallet_EarlyAccess",
      "outputs": [],
      "stateMutability": "nonpayable",
      "type": "function"
    },
    {
      "inputs": [
        {
          "internalType": "uint256",
          "name": "_limit",
          "type": "uint256"
        }
      ],
      "name": "setMaxperWallet_PublicMint",
      "outputs": [],
      "stateMutability": "nonpayable",
      "type": "function"
    },
    {
      "inputs": [
        {
          "internalType": "uint256",
          "name": "_limit",
          "type": "uint256"
        }
      ],
      "name": "setMaxperWallet_SkeleeFriends",
      "outputs": [],
      "stateMutability": "nonpayable",
      "type": "function"
    },
    {
      "inputs": [
        {
          "internalType": "uint256",
          "name": "_newsupply",
          "type": "uint256"
        }
      ],
      "name": "setMaxsupply",
      "outputs": [],
      "stateMutability": "nonpayable",
      "type": "function"
    },
    {
      "inputs": [
        {
          "internalType": "bytes32",
          "name": "_merkleRoot",
          "type": "bytes32"
        }
      ],
      "name": "setMerkleRoot",
      "outputs": [],
      "stateMutability": "nonpayable",
      "type": "function"
    },
    {
      "inputs": [
        {
          "internalType": "string",
          "name": "_notRevealedURI",
          "type": "string"
        }
      ],
      "name": "setNotRevealedURI",
      "outputs": [],
      "stateMutability": "nonpayable",
      "type": "function"
    },
    {
      "inputs": [
        {
          "internalType": "uint256",
          "name": "_newCost",
          "type": "uint256"
        }
      ],
      "name": "setPublicMintCost",
      "outputs": [],
      "stateMutability": "nonpayable",
      "type": "function"
    },
    {
      "inputs": [
        {
          "internalType": "uint256",
          "name": "_newsupply",
          "type": "uint256"
        }
      ],
      "name": "setSkeleeFriends_Supply",
      "outputs": [],
      "stateMutability": "nonpayable",
      "type": "function"
    },
    {
      "inputs": [
        {
          "internalType": "bytes4",
          "name": "interfaceId",
          "type": "bytes4"
        }
      ],
      "name": "supportsInterface",
      "outputs": [
        {
          "internalType": "bool",
          "name": "",
          "type": "bool"
        }
      ],
      "stateMutability": "view",
      "type": "function"
    },
    {
      "inputs": [],
      "name": "symbol",
      "outputs": [
        {
          "internalType": "string",
          "name": "",
          "type": "string"
        }
      ],
      "stateMutability": "view",
      "type": "function"
    },
    {
      "inputs": [
        {
          "internalType": "bool",
          "name": "_state",
          "type": "bool"
        }
      ],
      "name": "toggle_EarlyAccessMint_Live",
      "outputs": [],
      "stateMutability": "nonpayable",
      "type": "function"
    },
    {
      "inputs": [
        {
          "internalType": "bool",
          "name": "_state",
          "type": "bool"
        }
      ],
      "name": "toggle_PublicMint_Live",
      "outputs": [],
      "stateMutability": "nonpayable",
      "type": "function"
    },
    {
      "inputs": [
        {
          "internalType": "bool",
          "name": "_state",
          "type": "bool"
        }
      ],
      "name": "toggle_SkeleeFriendsMint_Live",
      "outputs": [],
      "stateMutability": "nonpayable",
      "type": "function"
    },
    {
      "inputs": [
        {
          "internalType": "uint256",
          "name": "tokenId",
          "type": "uint256"
        }
      ],
      "name": "tokenURI",
      "outputs": [
        {
          "internalType": "string",
          "name": "",
          "type": "string"
        }
      ],
      "stateMutability": "view",
      "type": "function"
    },
    {
      "inputs": [],
      "name": "totalSupply",
      "outputs": [
        {
          "internalType": "uint256",
          "name": "",
          "type": "uint256"
        }
      ],
      "stateMutability": "view",
      "type": "function"
    },
    {
      "inputs": [
        {
          "internalType": "address",
          "name": "from",
          "type": "address"
        },
        {
          "internalType": "address",
          "name": "to",
          "type": "address"
        },
        {
          "internalType": "uint256",
          "name": "tokenId",
          "type": "uint256"
        }
      ],
      "name": "transferFrom",
      "outputs": [],
      "stateMutability": "payable",
      "type": "function"
    },
    {
      "inputs": [
        {
          "internalType": "address",
          "name": "newOwner",
          "type": "address"
        }
      ],
      "name": "transferOwnership",
      "outputs": [],
      "stateMutability": "nonpayable",
      "type": "function"
    },
    {
      "inputs": [],
      "name": "withdraw",
      "outputs": [],
      "stateMutability": "payable",
      "type": "function"
    }
  ],
  "bytecode": "0x60c06040526005608081905264173539b7b760d91b60a09081526200002891600b9190620003a5565b5060405180606001604052806036815260200162002f4c6036913980516200005991600c91602090910190620003a5565b5067011c37937e080000600d556701bc16d674ec8000600e55611e61600f55606460105560fa6011556005601255600260135560016014556015805464ffffffffff19166401000000011790556000601655348015620000b857600080fd5b5060405162002f8238038062002f82833981016040819052620000db9162000461565b733cc6cdda760b79bafa08df41ecfa224f810dceb6600160405180604001604052806006815260200165536b656c656560d01b81525060405180604001604052806006815260200165736b656c656560d01b815250816002908051906020019062000148929190620003a5565b5080516200015e906003906020840190620003a5565b505060008055506200017033620002cf565b60016009556daaeb6d7670e522a718067333cd4e3b15620002ba5780156200020857604051633e9f1edf60e11b81523060048201526001600160a01b03831660248201526daaeb6d7670e522a718067333cd4e90637d3e3dbe906044015b600060405180830381600087803b158015620001e957600080fd5b505af1158015620001fe573d6000803e3d6000fd5b50505050620002ba565b6001600160a01b03821615620002595760405163a0af290360e01b81523060048201526001600160a01b03831660248201526daaeb6d7670e522a718067333cd4e9063a0af290390604401620001ce565b604051632210724360e11b81523060048201526daaeb6d7670e522a718067333cd4e90634420e48690602401600060405180830381600087803b158015620002a057600080fd5b505af1158015620002b5573d6000803e3d6000fd5b505050505b50620002c890508162000321565b5062000579565b600880546001600160a01b038381166001600160a01b0319831681179093556040519116919082907f8be0079c531659141344cd1fd0a4f28419497f9722a3daafe3b4186f6b6457e090600090a35050565b6200032b62000344565b80516200034090600a906020840190620003a5565b5050565b6008546001600160a01b03163314620003a35760405162461bcd60e51b815260206004820181905260248201527f4f776e61626c653a2063616c6c6572206973206e6f7420746865206f776e6572604482015260640160405180910390fd5b565b828054620003b3906200053d565b90600052602060002090601f016020900481019282620003d7576000855562000422565b82601f10620003f257805160ff191683800117855562000422565b8280016001018555821562000422579182015b828111156200042257825182559160200191906001019062000405565b506200043092915062000434565b5090565b5b8082111562000430576000815560010162000435565b634e487b7160e01b600052604160045260246000fd5b600060208083850312156200047557600080fd5b82516001600160401b03808211156200048d57600080fd5b818501915085601f830112620004a257600080fd5b815181811115620004b757620004b76200044b565b604051601f8201601f19908116603f01168101908382118183101715620004e257620004e26200044b565b816040528281528886848701011115620004fb57600080fd5b600093505b828410156200051f578484018601518185018701529285019262000500565b82841115620005315760008684830101525b98975050505050505050565b600181811c908216806200055257607f821691505b6020821081036200057357634e487b7160e01b600052602260045260246000fd5b50919050565b6129c380620005896000396000f3fe6080604052600436106103815760003560e01c80636c0360eb116101d1578063a343b5d211610102578063d5593927116100a0578063e985e9c51161006f578063e985e9c51461097f578063f048ba36146109c8578063f2c4ce1e146109e8578063f2fde38b14610a0857600080fd5b8063d559392714610913578063d5abeb0114610929578063da3ef23f1461093f578063dc33e6811461095f57600080fd5b8063c6682862116100dc578063c66828621461089e578063c87b56dd146108b3578063d0c62272146108d3578063d5525b37146108f357600080fd5b8063a343b5d214610855578063ab35b02a14610875578063b88d4fde1461088b57600080fd5b806383af89721161016f57806395d89b411161014957806395d89b41146107f7578063986b596d1461080c5780639fb17e3414610822578063a22cb4651461083557600080fd5b806383af8972146107a35780638da5cb5b146107b9578063940cd05b146107d757600080fd5b8063715018a6116101ab578063715018a61461072e5780637cb647591461074357806380eae5781461076357806383a076be1461078357600080fd5b80636c0360eb146106d95780636c8b8865146106ee57806370a082311461070e57600080fd5b8063375cff43116102b65780634ae6157d116102545780635c975abb116102235780635c975abb1461066957806360fca78414610683578063613cb469146106a35780636352211e146106b957600080fd5b80634ae6157d146105f4578063518302271461060a57806355f804b3146106295780635abeb2a31461064957600080fd5b806340bc5a131161029057806340bc5a131461057e57806341f434341461059f57806342842e0e146105c157806349cc13fa146105d457600080fd5b8063375cff43146105435780633ccfd60b146105565780633e06c4221461055e57600080fd5b8063149835a0116103235780631dc233f4116102fd5780631dc233f4146104e457806323b872dd1461050457806327b92c8d146105175780632eb4a7ab1461052d57600080fd5b8063149835a01461047f57806317f0f1311461049f57806318160ddd146104c157600080fd5b8063081812fc1161035f578063081812fc146103ff578063081c8c4414610437578063095ea7b31461044c57806311c651421461045f57600080fd5b806301ffc9a71461038657806302329a29146103bb57806306fdde03146103dd575b600080fd5b34801561039257600080fd5b506103a66103a1366004612345565b610a28565b60405190151581526020015b60405180910390f35b3480156103c757600080fd5b506103db6103d6366004612370565b610a7a565b005b3480156103e957600080fd5b506103f2610a95565b6040516103b291906123e5565b34801561040b57600080fd5b5061041f61041a3660046123f8565b610b27565b6040516001600160a01b0390911681526020016103b2565b34801561044357600080fd5b506103f2610b6b565b6103db61045a36600461242d565b610bf9565b34801561046b57600080fd5b506103db61047a3660046123f8565b610c12565b34801561048b57600080fd5b506103db61049a3660046123f8565b610c1f565b3480156104ab57600080fd5b506015546103a690640100000000900460ff1681565b3480156104cd57600080fd5b50600154600054035b6040519081526020016103b2565b3480156104f057600080fd5b506015546103a69062010000900460ff1681565b6103db610512366004612457565b610c2c565b34801561052357600080fd5b506104d660115481565b34801561053957600080fd5b506104d660165481565b6103db6105513660046123f8565b610c57565b6103db610f0b565b34801561056a57600080fd5b506103db610579366004612370565b610f7d565b34801561058a57600080fd5b506015546103a6906301000000900460ff1681565b3480156105ab57600080fd5b5061041f6daaeb6d7670e522a718067333cd4e81565b6103db6105cf366004612457565b610fa5565b3480156105e057600080fd5b506103db6105ef366004612370565b610fca565b34801561060057600080fd5b506104d660125481565b34801561061657600080fd5b506015546103a690610100900460ff1681565b34801561063557600080fd5b506103db61064436600461251f565b610ff0565b34801561065557600080fd5b506103db6106643660046123f8565b61100f565b34801561067557600080fd5b506015546103a69060ff1681565b34801561068f57600080fd5b506103db61069e3660046123f8565b61101c565b3480156106af57600080fd5b506104d6600e5481565b3480156106c557600080fd5b5061041f6106d43660046123f8565b611029565b3480156106e557600080fd5b506103f2611034565b3480156106fa57600080fd5b506103db610709366004612370565b611041565b34801561071a57600080fd5b506104d6610729366004612568565b611065565b34801561073a57600080fd5b506103db6110b4565b34801561074f57600080fd5b506103db61075e3660046123f8565b6110c6565b34801561076f57600080fd5b506103db61077e3660046123f8565b6110d3565b34801561078f57600080fd5b506103db61079e366004612583565b6110e0565b3480156107af57600080fd5b506104d660105481565b3480156107c557600080fd5b506008546001600160a01b031661041f565b3480156107e357600080fd5b506103db6107f2366004612370565b61117c565b34801561080357600080fd5b506103f261119e565b34801561081857600080fd5b506104d6600d5481565b6103db6108303660046123f8565b6111ad565b34801561084157600080fd5b506103db6108503660046125af565b61134b565b34801561086157600080fd5b506103db6108703660046123f8565b61135f565b34801561088157600080fd5b506104d660145481565b6103db6108993660046125e6565b61136c565b3480156108aa57600080fd5b506103f2611399565b3480156108bf57600080fd5b506103f26108ce3660046123f8565b6113a6565b3480156108df57600080fd5b506103db6108ee3660046123f8565b61151b565b3480156108ff57600080fd5b506103db61090e366004612662565b611528565b34801561091f57600080fd5b506104d660135481565b34801561093557600080fd5b506104d6600f5481565b34801561094b57600080fd5b506103db61095a36600461251f565b611810565b34801561096b57600080fd5b506104d661097a366004612568565b61182b565b34801561098b57600080fd5b506103a661099a3660046126e1565b6001600160a01b03918216600090815260076020908152604080832093909416825291909152205460ff1690565b3480156109d457600080fd5b506103db6109e33660046123f8565b611836565b3480156109f457600080fd5b506103db610a0336600461251f565b611843565b348015610a1457600080fd5b506103db610a23366004612568565b61185e565b60006301ffc9a760e01b6001600160e01b031983161480610a5957506380ac58cd60e01b6001600160e01b03198316145b80610a745750635b5e139f60e01b6001600160e01b03198316145b92915050565b610a826118d4565b6015805460ff1916911515919091179055565b606060028054610aa49061270b565b80601f0160208091040260200160405190810160405280929190818152602001828054610ad09061270b565b8015610b1d5780601f10610af257610100808354040283529160200191610b1d565b820191906000526020600020905b815481529060010190602001808311610b0057829003601f168201915b5050505050905090565b6000610b328261192e565b610b4f576040516333d1c03960e21b815260040160405180910390fd5b506000908152600660205260409020546001600160a01b031690565b600c8054610b789061270b565b80601f0160208091040260200160405190810160405280929190818152602001828054610ba49061270b565b8015610bf15780601f10610bc657610100808354040283529160200191610bf1565b820191906000526020600020905b815481529060010190602001808311610bd457829003601f168201915b505050505081565b81610c0381611955565b610c0d8383611a0e565b505050565b610c1a6118d4565b601355565b610c276118d4565b600f55565b826001600160a01b0381163314610c4657610c4633611955565b610c51848484611aae565b50505050565b610c5f611c46565b60155460ff1615610c8b5760405162461bcd60e51b8152600401610c8290612745565b60405180910390fd5b6015546301000000900460ff16610cde5760405162461bcd60e51b815260206004820152601760248201527614d85b194812185cdb89dd081cdd185c9d1959081e595d604a1b6044820152606401610c82565b6000610ced6001546000540390565b9050610d2d610d046008546001600160a01b031690565b6001600160a01b03166000908152600560205260409081902054901c67ffffffffffffffff1690565b601154601054610d3d9190612792565b610d479190612792565b610d518383612792565b1115610d9f5760405162461bcd60e51b815260206004820152601e60248201527f4d696e74207068617365206d617820537570706c7920657863656564656400006044820152606401610c82565b60008211610dbf5760405162461bcd60e51b8152600401610c82906127aa565b601354821115610e115760405162461bcd60e51b815260206004820152601f60248201527f6d6178206d696e7420616d6f756e7420706572207478206578636565646564006044820152606401610c82565b600f54610e1e8383612792565b1115610e3c5760405162461bcd60e51b8152600401610c82906127e1565b60135482610e4933610d04565b610e539190612792565b1115610ea15760405162461bcd60e51b815260206004820152601d60248201527f204d6178204e465473205065722057616c6c65742065786365656465640000006044820152606401610c82565b81600d54610eaf9190612805565b341015610ef35760405162461bcd60e51b8152602060048201526012602482015271696e73756666696369656e742066756e647360701b6044820152606401610c82565b610efd3383611c9f565b50610f086001600955565b50565b610f136118d4565b610f1b611c46565b604051600090339047908381818185875af1925050503d8060008114610f5d576040519150601f19603f3d011682016040523d82523d6000602084013e610f62565b606091505b5050905080610f7057600080fd5b50610f7b6001600955565b565b610f856118d4565b601580549115156401000000000264ff0000000019909216919091179055565b826001600160a01b0381163314610fbf57610fbf33611955565b610c51848484611cb9565b610fd26118d4565b6015805491151563010000000263ff00000019909216919091179055565b610ff86118d4565b805161100b90600a906020840190612296565b5050565b6110176118d4565b600d55565b6110246118d4565b601055565b6000610a7482611cd4565b600a8054610b789061270b565b6110496118d4565b60158054911515620100000262ff000019909216919091179055565b60006001600160a01b03821661108e576040516323d3ad8160e21b815260040160405180910390fd5b506001600160a01b031660009081526005602052604090205467ffffffffffffffff1690565b6110bc6118d4565b610f7b6000611d3b565b6110ce6118d4565b601655565b6110db6118d4565b600e55565b6110e86118d4565b6110f0611c46565b600082116111105760405162461bcd60e51b8152600401610c82906127aa565b600061111f6001546000540390565b600f5490915061112f8483612792565b11156111675760405162461bcd60e51b815260206004820152600760248201526614dbdb191bdd5d60ca1b6044820152606401610c82565b6111718284611c9f565b5061100b6001600955565b6111846118d4565b601580549115156101000261ff0019909216919091179055565b606060038054610aa49061270b565b6111b5611c46565b60155460ff16156111d85760405162461bcd60e51b8152600401610c8290612745565b60155462010000900460ff1661122a5760405162461bcd60e51b815260206004820152601760248201527614d85b194812185cdb89dd081cdd185c9d1959081e595d604a1b6044820152606401610c82565b60006112396001546000540390565b90506000821161125b5760405162461bcd60e51b8152600401610c82906127aa565b6012548211156112ad5760405162461bcd60e51b815260206004820152601f60248201527f6d6178206d696e7420616d6f756e7420706572207478206578636565646564006044820152606401610c82565b600f546112ba8383612792565b11156112d85760405162461bcd60e51b8152600401610c82906127e1565b601254826112e533610d04565b6112ef9190612792565b111561133d5760405162461bcd60e51b815260206004820152601d60248201527f204d6178204e465473205065722057616c6c65742065786365656465640000006044820152606401610c82565b81600e54610eaf9190612805565b8161135581611955565b610c0d8383611d8d565b6113676118d4565b601155565b836001600160a01b03811633146113865761138633611955565b61139285858585611df9565b5050505050565b600b8054610b789061270b565b60606113b18261192e565b6114165760405162461bcd60e51b815260206004820152603060248201527f455243373231414d657461646174613a2055524920717565727920666f72206e60448201526f37b732bc34b9ba32b73a103a37b5b2b760811b6064820152608401610c82565b601554610100900460ff1615156000036114bc57600c80546114379061270b565b80601f01602080910402602001604051908101604052809291908181526020018280546114639061270b565b80156114b05780601f10611485576101008083540402835291602001916114b0565b820191906000526020600020905b81548152906001019060200180831161149357829003601f168201915b50505050509050919050565b60006114c6611e3d565b905060008151116114e65760405180602001604052806000815250611514565b806114f084611e4c565b600b60405160200161150493929190612824565b6040516020818303038152906040525b9392505050565b6115236118d4565b601255565b611530611c46565b60155460ff16156115535760405162461bcd60e51b8152600401610c8290612745565b601554640100000000900460ff166115ad5760405162461bcd60e51b815260206004820152601d60248201527f6d696e74207068617365206861736e27742073746172746564207965740000006044820152606401610c82565b611622828280806020026020016040519081016040528093929190818152602001838360200280828437600092019190915250506016546040516bffffffffffffffffffffffff193360601b166020820152909250603401905060405160208183030381529060405280519060200120611edf565b61166e5760405162461bcd60e51b815260206004820152601860248201527f20596f7520617265206e6f742077686974656c697374656400000000000000006044820152606401610c82565b600061167d6001546000540390565b9050611694610d046008546001600160a01b031690565b6010546116a19190612792565b6116ab8583612792565b11156116f95760405162461bcd60e51b815260206004820152601e60248201527f4d696e74207068617365206d617820537570706c7920657863656564656400006044820152606401610c82565b6014548461170633610d04565b6117109190612792565b111561175e5760405162461bcd60e51b815260206004820152601c60248201527f4d6178204e465473205065722057616c6c6574206578636565646564000000006044820152606401610c82565b6000841161177e5760405162461bcd60e51b8152600401610c82906127aa565b600f5461178b8583612792565b11156117a95760405162461bcd60e51b8152600401610c82906127e1565b6014548411156117fb5760405162461bcd60e51b815260206004820152601860248201527f6d6178206d696e742070657220547820657863656564656400000000000000006044820152606401610c82565b6118053385611c9f565b50610c0d6001600955565b6118186118d4565b805161100b90600b906020840190612296565b6000610a7482610d04565b61183e6118d4565b601455565b61184b6118d4565b805161100b90600c906020840190612296565b6118666118d4565b6001600160a01b0381166118cb5760405162461bcd60e51b815260206004820152602660248201527f4f776e61626c653a206e6577206f776e657220697320746865207a65726f206160448201526564647265737360d01b6064820152608401610c82565b610f0881611d3b565b6008546001600160a01b03163314610f7b5760405162461bcd60e51b815260206004820181905260248201527f4f776e61626c653a2063616c6c6572206973206e6f7420746865206f776e65726044820152606401610c82565b6000805482108015610a74575050600090815260046020526040902054600160e01b161590565b6daaeb6d7670e522a718067333cd4e3b15610f0857604051633185c44d60e21b81523060048201526001600160a01b03821660248201526daaeb6d7670e522a718067333cd4e9063c617113490604401602060405180830381865afa1580156119c2573d6000803e3d6000fd5b505050506040513d601f19601f820116820180604052508101906119e691906128e7565b610f0857604051633b79c77360e21b81526001600160a01b0382166004820152602401610c82565b6000611a1982611029565b9050336001600160a01b03821614611a5257611a35813361099a565b611a52576040516367d9dca160e11b815260040160405180910390fd5b60008281526006602052604080822080546001600160a01b0319166001600160a01b0387811691821790925591518593918516917f8c5be1e5ebec7d5bd14f71427d1e84f3dd0314c0f7b2291e5b200ac8c7c3b92591a4505050565b6000611ab982611cd4565b9050836001600160a01b0316816001600160a01b031614611aec5760405162a1148160e81b815260040160405180910390fd5b60008281526006602052604090208054338082146001600160a01b03881690911417611b3957611b1c863361099a565b611b3957604051632ce44b5f60e11b815260040160405180910390fd5b6001600160a01b038516611b6057604051633a954ecd60e21b815260040160405180910390fd5b8015611b6b57600082555b6001600160a01b038681166000908152600560205260408082208054600019019055918716808252919020805460010190554260a01b17600160e11b17600085815260046020526040812091909155600160e11b84169003611bfd57600184016000818152600460205260408120549003611bfb576000548114611bfb5760008181526004602052604090208490555b505b83856001600160a01b0316876001600160a01b03167fddf252ad1be2c89b69c2b068fc378daa952ba7f163c4a11628f55a4df523b3ef60405160405180910390a4505050505050565b600260095403611c985760405162461bcd60e51b815260206004820152601f60248201527f5265656e7472616e637947756172643a207265656e7472616e742063616c6c006044820152606401610c82565b6002600955565b61100b828260405180602001604052806000815250611ef5565b610c0d8383836040518060200160405280600081525061136c565b600081600054811015611d225760008181526004602052604081205490600160e01b82169003611d20575b80600003611514575060001901600081815260046020526040902054611cff565b505b604051636f96cda160e11b815260040160405180910390fd5b600880546001600160a01b038381166001600160a01b0319831681179093556040519116919082907f8be0079c531659141344cd1fd0a4f28419497f9722a3daafe3b4186f6b6457e090600090a35050565b3360008181526007602090815260408083206001600160a01b03871680855290835292819020805460ff191686151590811790915590519081529192917f17307eab39ab6107e8899845ad3d59bd9653f200f220920489ca2b5937696c31910160405180910390a35050565b611e04848484610c2c565b6001600160a01b0383163b15610c5157611e2084848484611f5b565b610c51576040516368d2bf6b60e11b815260040160405180910390fd5b6060600a8054610aa49061270b565b60606000611e5983612047565b600101905060008167ffffffffffffffff811115611e7957611e79612493565b6040519080825280601f01601f191660200182016040528015611ea3576020820181803683370190505b5090508181016020015b600019016f181899199a1a9b1b9c1cb0b131b232b360811b600a86061a8153600a8504945084611ead57509392505050565b600082611eec858461211f565b14949350505050565b611eff838361216c565b6001600160a01b0383163b15610c0d576000548281035b611f296000868380600101945086611f5b565b611f46576040516368d2bf6b60e11b815260040160405180910390fd5b818110611f1657816000541461139257600080fd5b604051630a85bd0160e11b81526000906001600160a01b0385169063150b7a0290611f90903390899088908890600401612904565b6020604051808303816000875af1925050508015611fcb575060408051601f3d908101601f19168201909252611fc891810190612941565b60015b612029573d808015611ff9576040519150601f19603f3d011682016040523d82523d6000602084013e611ffe565b606091505b508051600003612021576040516368d2bf6b60e11b815260040160405180910390fd5b805181602001fd5b6001600160e01b031916630a85bd0160e11b1490505b949350505050565b60008072184f03e93ff9f4daa797ed6e38ed64bf6a1f0160401b83106120865772184f03e93ff9f4daa797ed6e38ed64bf6a1f0160401b830492506040015b6d04ee2d6d415b85acef810000000083106120b2576d04ee2d6d415b85acef8100000000830492506020015b662386f26fc1000083106120d057662386f26fc10000830492506010015b6305f5e10083106120e8576305f5e100830492506008015b61271083106120fc57612710830492506004015b6064831061210e576064830492506002015b600a8310610a745760010192915050565b600081815b845181101561216457612150828683815181106121435761214361295e565b602002602001015161226a565b91508061215c81612974565b915050612124565b509392505050565b60008054908290036121915760405163b562e8dd60e01b815260040160405180910390fd5b6001600160a01b03831660008181526005602090815260408083208054680100000000000000018802019055848352600490915281206001851460e11b4260a01b178317905582840190839083907fddf252ad1be2c89b69c2b068fc378daa952ba7f163c4a11628f55a4df523b3ef8180a4600183015b81811461224057808360007fddf252ad1be2c89b69c2b068fc378daa952ba7f163c4a11628f55a4df523b3ef600080a4600101612208565b508160000361226157604051622e076360e81b815260040160405180910390fd5b60005550505050565b6000818310612286576000828152602084905260409020611514565b5060009182526020526040902090565b8280546122a29061270b565b90600052602060002090601f0160209004810192826122c4576000855561230a565b82601f106122dd57805160ff191683800117855561230a565b8280016001018555821561230a579182015b8281111561230a5782518255916020019190600101906122ef565b5061231692915061231a565b5090565b5b80821115612316576000815560010161231b565b6001600160e01b031981168114610f0857600080fd5b60006020828403121561235757600080fd5b81356115148161232f565b8015158114610f0857600080fd5b60006020828403121561238257600080fd5b813561151481612362565b60005b838110156123a8578181015183820152602001612390565b83811115610c515750506000910152565b600081518084526123d181602086016020860161238d565b601f01601f19169290920160200192915050565b60208152600061151460208301846123b9565b60006020828403121561240a57600080fd5b5035919050565b80356001600160a01b038116811461242857600080fd5b919050565b6000806040838503121561244057600080fd5b61244983612411565b946020939093013593505050565b60008060006060848603121561246c57600080fd5b61247584612411565b925061248360208501612411565b9150604084013590509250925092565b634e487b7160e01b600052604160045260246000fd5b600067ffffffffffffffff808411156124c4576124c4612493565b604051601f8501601f19908116603f011681019082821181831017156124ec576124ec612493565b8160405280935085815286868601111561250557600080fd5b858560208301376000602087830101525050509392505050565b60006020828403121561253157600080fd5b813567ffffffffffffffff81111561254857600080fd5b8201601f8101841361255957600080fd5b61203f848235602084016124a9565b60006020828403121561257a57600080fd5b61151482612411565b6000806040838503121561259657600080fd5b823591506125a660208401612411565b90509250929050565b600080604083850312156125c257600080fd5b6125cb83612411565b915060208301356125db81612362565b809150509250929050565b600080600080608085870312156125fc57600080fd5b61260585612411565b935061261360208601612411565b925060408501359150606085013567ffffffffffffffff81111561263657600080fd5b8501601f8101871361264757600080fd5b612656878235602084016124a9565b91505092959194509250565b60008060006040848603121561267757600080fd5b83359250602084013567ffffffffffffffff8082111561269657600080fd5b818601915086601f8301126126aa57600080fd5b8135818111156126b957600080fd5b8760208260051b85010111156126ce57600080fd5b6020830194508093505050509250925092565b600080604083850312156126f457600080fd5b6126fd83612411565b91506125a660208401612411565b600181811c9082168061271f57607f821691505b60208210810361273f57634e487b7160e01b600052602260045260246000fd5b50919050565b60208082526017908201527f6f6f707320636f6e747261637420697320706175736564000000000000000000604082015260600190565b634e487b7160e01b600052601160045260246000fd5b600082198211156127a5576127a561277c565b500190565b6020808252601b908201527f6e65656420746f206d696e74206174206c656173742031204e46540000000000604082015260600190565b6020808252600a908201526915d94814dbdb191bdd5d60b21b604082015260600190565b600081600019048311821515161561281f5761281f61277c565b500290565b6000845160206128378285838a0161238d565b85519184019161284a8184848a0161238d565b8554920191600090600181811c908083168061286757607f831692505b858310810361288457634e487b7160e01b85526022600452602485fd5b80801561289857600181146128a9576128d6565b60ff198516885283880195506128d6565b60008b81526020902060005b858110156128ce5781548a8201529084019088016128b5565b505083880195505b50939b9a5050505050505050505050565b6000602082840312156128f957600080fd5b815161151481612362565b6001600160a01b0385811682528416602082015260408101839052608060608201819052600090612937908301846123b9565b9695505050505050565b60006020828403121561295357600080fd5b81516115148161232f565b634e487b7160e01b600052603260045260246000fd5b6000600182016129865761298661277c565b506001019056fea2646970667358221220463d7bef371bfde191f4391d5234f2d1b5e1ddd6bf42a4be072e9e42d50a560164736f6c634300080d0033697066733a2f2f516d6579327743464138337a7a67634c4738616f46785547484374424777426b726a44694875444378614535373620",
  "linkReferences": {},
  "deployedLinkReferences": {}
}